:100000000C9413010C943B010C943B010C943B01A8
:100010000C943B010C943B010C943B010C943B0170
:100020000C943B010C943B010C943B010C943B0160
:100030000C943B010C943B010C943B010C943B0150
:100040000C941F050C943B010C941F040C94F903B1
:100050000C943B010C943B010C943B010C943B0130
:100060000C949C080C943B01004552524F525F4146
:10007000434B5F48004552524F525F41434B5F4CE8
:10008000004552524F525F434845434B53554D0034
:100090004552524F525F54494D454F5554004552B9
:1000A000524F525F434F4E4E454354004F4B00ACAE
:1000B000009E00900081007500690068000000004B
:1000C00000250028002B00000000080002010000AD
:1000D00003040700000000000000000000000024EE
:1000E0000027002A00000102030405111213141551
:1000F000160A0B0C0D0E0F0000000023002600292D
:1001000000040404040404040402020202020203C0
:1001100003030303030102040810204080010204CA
:1001200008102001020408102000407A10F35A0041
:10013000A0724E18090010A5D4E80000E876481710
:100140000000E40B54020000CA9A3B000000E1F5F5
:1001500005000080969800000040420F000000A0BB
:100160008601000000102700000000E803000000E6
:10017000006400000000000A000000000001000010
:100180000000002C76D888DC674F0823DFC1DFAE83
:1001900059E1B1B796E5E3E453C63AE6519976964C
:1001A000E8E6C28426EB898C9B62ED407C6FFCEF15
:1001B000BC9C9F40F2BAA56FA5F490055A2AF75C43
:1001C000936B6CF9676DC11BFCE0E40D47FEF520F5
:1001D000E6B500D0ED902E030094357705008084BD
:1001E0001E080000204E0A000000C80C33333333D1
:1001F0000F986E12831141EF8D2114893BE655163D
:10020000CFFEE6DB18D1844B381BF77C1D901DA474
:10021000BBE424203284725E228100C9F124ECA167
:10022000E53D2700961611241FBECFEFD8E0DEBFB4
:10023000CDBF12E0A0E0B1E0EEE2FCE302C0059029
:100240000D92AC34B107D9F726E0ACE4B2E001C0BE
:100250001D92AA34B207E1F711E0C3E1D1E004C076
:100260002197FE010E948117C231D107C9F70E9470
:10027000600E0C94151E0C940000FC01918D828D73
:10028000981761F0828DDF01A80FB11D5D968C91EA
:10029000928D9F5F9F73928F90E008958FEF9FEFF5
:1002A0000895FC01918D828D981731F0828DE80FB1
:1002B000F11D858D90E008958FEF9FEF0895FC016B
:1002C000918D228D892F90E0805C9F4F821B910938
:1002D0008F739927089588EA95E00E945F0121E0D5
:1002E000892B09F420E0822F0895FC01848DDF0121
:1002F000A80FB11DA35ABF4F2C91848D90E0019699
:100300008F739927848FA689B7892C93A089B18987
:100310008C9180648C93938D848D981306C0028891
:10032000F389E02D80818F7D80830895EF92FF9285
:100330000F931F93CF93DF93EC0181E0888F9B8D08
:100340008C8D981305C0E889F989808185FD24C0CA
:10035000F62E0B8D10E00F5F1F4F0F731127E02E4D
:100360008C8DE8120CC00FB607FCFACFE889F9892A
:10037000808185FFF5CFCE010E947501F1CF8B8D75
:10038000FE01E80FF11DE35AFF4FF0820B8FEA895F
:10039000FB898081806207C0EE89FF896083E889DC
:1003A000F98980818064808381E090E0DF91CF9142
:1003B0001F910F91FF90EF900895CF93DF93EC0181
:1003C000888D8823C9F0EA89FB89808185FD05C075
:1003D000A889B9898C9186FD0FC00FB607FCF5CFAF
:1003E000808185FFF2CFA889B9898C9185FFEDCFF7
:1003F000CE010E947501E7CFDF91CF91089580E093
:1004000090E0892B29F00E946B0181110C9400006F
:1004100008953FB7F8948091990290919A02A09123
:100420009B02B0919C0226B5A89B05C02F3F19F0F6
:100430000196A11DB11D3FBFBA2FA92F982F882764
:10044000820F911DA11DB11DBC01CD0143E0660FBE
:10045000771F881F991F4A95D1F708950F931F930F
:10046000CF9323E8260FFC01A785B0892330C8F479
:10047000C62F8C01ED91FC9111970190F081E02D38
:100480006DE7CD010995D8011F968D919C915097EC
:10049000DC01ED91FC9160E26C270190F081E02D90
:1004A00007C0ED91FC9111970190F081E02DCD01F5
:1004B000CF911F910F910994EF92FF920F931F9389
:1004C000CF93DF937C01EB018B01040F151FC01745
:1004D000D10729F06991C7010E942E02F8CFDF9160
:1004E000CF911F910F91FF90EF900895DC019D0136
:1004F000281B390B26173707F4F42D914227F42FC8
:10050000E52FAF01442724E0440F551F2A95E1F75A
:100510004E275F279A01232F332722952F702427F8
:100520003527A9014427F5E056954795FA95E1F757
:1005300042275327DCCFCA01089585ED8093BC0084
:100540008091BC0084FDFCCF109217030895409168
:100550006F02262F30E0240F311D21323105DCF4EB
:10056000209117032430C9F4FC0180E090E0861745
:1005700058F430916F022191DC01A35BBD4FA30FB2
:10058000B11D2C930196F3CF80916F02680F609399
:100590006F0280E0089581E0089582E00895089553
:1005A000E091D0028091CF02E81730F4F0E0EF52F2
:1005B000FD4F808190E008958FEF9FEF0895909117
:1005C000D0028091CF02981750F4E92FF0E0EF525B
:1005D000FD4F208130E09F5F9093D00202C02FEF4B
:1005E0003FEFC90108958091CF0290E02091D002A1
:1005F000821B91090895CF92DF92EF92FF920F93A1
:100600001F93CF93DF937C01262F972F8A01809130
:100610001803882391F0C62FD72F6E01C40ED51E64
:10062000CC15DD0571F06991D701ED91FC91019038
:10063000F081E02DC7010995F3CF642F822F0E942E
:10064000A702C801DF91CF911F910F91FF90EF900A
:10065000DF90CF900895CF93DF931F92CDB7DEB791
:100660006983209118032223D1F020913A0320328C
:1006700040F021E030E0FC013383228380E090E011
:1006800015C080911903E82FF0E0E65EFC4F9981D8
:1006900090838F5F8093190380933A0305C061E0D4
:1006A000CE0101960E94A70281E090E00F90DF91B9
:1006B000CF910895089510924C02089581E080939F
:1006C0004C0208950E94F519AF92BF92CF92DF922B
:1006D000EF92FF920F931F93CF93DF9300D0CDB78C
:1006E000DEB78C017B0162E571E00E94200ED7012C
:1006F0001296ED91FC911397C190D1901396FC93B3
:10070000EE931297D701C114D10479F11296ED91AD
:10071000FC911397CF01019613969C938E93129799
:10072000808189831A82F801A480B580FFEFAF1A17
:10073000BF0AB501C8010E94C90D882391F0D801F4
:100740002D913C91119714968D919C911597BE0116
:100750006F5F7F4F820F931F0E940C1AF801B582C2
:10076000A482F1E0CF1AD108CDCF8D919C91119741
:1007700001968D939C93C8010F900F90DF91CF91BC
:100780001F910F91FF90EF90DF90CF90BF90AF90AF
:100790000895CF93DF93CDB7DEB762970FB6F89485
:1007A000DEBF0FBECDBF9A8B898B0C96988B8F873F
:1007B0001E861D86BE01635F7F4FCE0107960E9495
:1007C0006403BE01635F7F4FCE0101960E94640304
:1007D000CE0101960E94F00DCE0107960E94F00D09
:1007E00062960FB6F894DEBF0FBECDBFDF91CF91FA
:1007F00008951F920F920FB60F9211242F933F93DB
:100800004F935F936F937F938F939F93AF93BF9318
:10081000EF93FF9388EA95E00E947501FF91EF91B5
:10082000BF91AF919F918F917F916F915F914F9108
:100830003F912F910F900FBE0F901F9018951F9210
:100840000F920FB60F9211242F938F939F93EF93D4
:10085000FF93E091B805F091B9058081E091BE0564
:10086000F091BF0582FD12C090818091C1058F5F1C
:100870008F732091C205821751F0E091C105F0E01D
:10088000E855FA4F958F8093C10501C08081FF9193
:10089000EF919F918F912F910F900FBE0F901F900E
:1008A000189590E0FC01E953FF4F3491FC01EB5E99
:1008B000FE4F2491FC01EF5FFE4FE491EE2309F41B
:1008C0003BC0332339F1333091F038F43130A9F0A3
:1008D000323001F584B58F7D12C0373091F0383059
:1008E000A1F03430B9F4809180008F7D03C08091F5
:1008F00080008F77809380000DC084B58F7784BD92
:1009000009C08091B0008F7703C08091B0008F7DC7
:100910008093B000F0E0EE0FFF1FE354FF4FA5916E
:10092000B4918FB7F894EC91611103C020952E23F8
:1009300001C02E2B2C938FBF0895CF93DF9390E0AF
:10094000FC01EB5EFE4F2491FC01EF5FFE4F8491B2
:10095000882361F190E0880F991FFC01E552FF4F59
:10096000C591D491FC01E354FF4FA591B49161115D
:1009700009C09FB7F8948881209582238883EC91E1
:100980002E230BC0623061F49FB7F8943881822F18
:10099000809583238883EC912E2B2C939FBF06C0D8
:1009A0008FB7F894E8812E2B28838FBFDF91CF91EA
:1009B00008958F929F92AF92BF92CF92DF92EF9263
:1009C000FF926B017C010E9409024B015C01C11482
:1009D000D104E104F104F1F00E940902DC01CB0131
:1009E00088199909AA09BB09883E9340A105B10558
:1009F00070F321E0C21AD108E108F10888EE880EF0
:100A000083E0981EA11CB11CC114D104E104F104BF
:100A100019F7DDCFFF90EF90DF90CF90BF90AF90B0
:100A20009F908F9008952FB7F894609195027091E0
:100A3000960280919702909198022FBF08951F927D
:100A40000F920FB60F9211242F933F938F939F9382
:100A5000AF93BF938091950290919602A0919702D7
:100A6000B09198023091940226E0230F2D3720F4A4
:100A70000296A11DB11D05C029E8230F0396A11DF3
:100A8000B11D209394028093950290939602A093B7
:100A90009702B09398028091990290919A02A09146
:100AA0009B02B0919C020196A11DB11D80939902F9
:100AB00090939A02A0939B02B0939C02BF91AF9136
:100AC0009F918F913F912F910F900FBE0F901F908C
:100AD00018958EBD00000DB407FEFDCF8EB50895AC
:100AE0002F923F924F925F926F927F928F929F923E
:100AF000AF92BF92CF92DF92EF92FF920F931F932C
:100B0000CF93DF9300D000D000D0CDB7DEB78C01FB
:100B1000D8011F968D919C915097DC01ED91FC912D
:100B20000480F581E02D0995892B09F41CC1D801B9
:100B30001F968D919C915097DC01ED91FC91068060
:100B4000F781E02D0995682F8E3741F09CF48D37A1
:100B500009F0BAC021E0F801208FDACFD80157960A
:100B60001C921E92569758961C925897E1E05996FF
:100B7000EC93CECFD8015296ED90FC905397F701AD
:100B8000228433846701FCE0CF0ED11C40E050E0AA
:100B90006CE070E0C7010E9476025101A1E0AA1A40
:100BA000B108F8F0D6014D905C90AC0162E070E0C5
:100BB000C6010E947602B2E0CB0ED11C3601420182
:100BC000F1E08F1A910850F0AC0161E070E0C301D0
:100BD0000E947602EFEF6E1A7E0AF2CFC40CD51C8B
:100BE000DDCFF601208131818217930759F16BE344
:100BF00071E0CE0101960E94200ED80151968C9191
:100C000051978823D1F0ED90FC90D701ED91FC91A4
:100C10004D815E8169817A810280F381E02DC70177
:100C20000995D701ED91FC910280F381E02D42E01E
:100C300050E060E571E0C7010995CE0101960E9480
:100C4000F00D3EC0F70182819381A481B5810097A8
:100C5000A105B105F1F0DC0180819181F801958752
:100C60008487F7014681578160857185F801408747
:100C70005187628773878D919C9111971296ED91A0
:100C8000FC911397009709F04FC0309709F04CC0C2
:100C900017C02328A9F4E1E0D8011E96EC93D701F0
:100CA0008D919C911197F8019587848716968D9167
:100CB0009D910D90BC91A02D80879187A287B387CD
:100CC000D80159961C9224CFF801818D81110EC054
:100CD0008189882309F41CCF80819181DC01ED9109
:100CE000FC910190F081E02D099512CFF801808DE3
:100CF000882329F0F0E26F27D80158961C92F8015A
:100D000086899789248935898217930708F000CF4F
:100D100022893389AC014F5F5F4F578B468BF901B6
:100D2000E80FF91F6083F4CE309751F20097C1F0BD
:100D300014962D913C911597A9015595479520FF43
:100D40000AC0DC01A40FB51F2D913C91E20FF31FE7
:100D50000190F081E02DB701840F951F0995B0CF68
:100D6000C7010995ADCF26960FB6F894DEBF0FBE2A
:100D7000CDBFDF91CF911F910F91FF90EF90DF904A
:100D8000CF90BF90AF909F908F907F906F905F902B
:100D90004F903F902F9008950F931F93CF93DF9321
:100DA00000D0CDB7DEB78C017A83698342E050E092
:100DB000BE016F5F7F4F0E945C02D8011F968D912C
:100DC0009C915097DC01ED91FC910190F081E02D18
:100DD0006FE709950F900F90DF91CF911F910F91C1
:100DE0000895AF92BF92CF92DF92EF92FF920F934E
:100DF0001F93CF93DF9300D01F92CDB7DEB75C0176
:100E00007B018A0169011B82C901AC014F5F5F4F01
:100E10009C0123703327232B11F0CA01F6CF9A834C
:100E2000898342E050E0BE016F5F7F4FC5010E94A1
:100E30005C02A70162E070E0CE0101960E9476029A
:100E40007C01C00ED11E0C151D05B1F0F8016081AA
:100E5000C5010E942E02A70161E070E0C8010E9456
:100E600076027C010F5F1F4F89819A81009759F3A9
:100E700001979A838983E7CF89819A819C012150C8
:100E800031093A832983892B69F06B81C5010E945E
:100E90002E02A70161E070E0CE0103960E94760267
:100EA0007C01EACFC7010F900F900F90DF91CF9197
:100EB0001F910F91FF90EF90DF90CF90BF90AF9078
:100EC0000895AF92BF92CF92DF92EF92FF920F936D
:100ED0001F93CF93DF93CDB7DEB72C970FB6F8945F
:100EE000DEBF0FBECDBF5C017A8369832B833C8359
:100EF0004D835E83EF82F88609871A87DC86CB866E
:100F0000DC011F968D919C915097DC01ED91FC9135
:100F10000190F081E02D6EE7099542E050E0BE01BE
:100F20006F5F7F4FC5010E945C0240E050E062E0CD
:100F300070E0CE0101960E9476028C0144E050E000
:100F4000BE016D5F7F4FC5010E945C02A80164E095
:100F500070E0CE0103960E9476028C0144E050E0DE
:100F6000BE01695F7F4FC5010E945C02A80164E079
:100F700070E0CE0107960E9476028C0142E050E0BC
:100F8000BE01655F7F4FC5010E945C02A80162E05F
:100F900070E0CE010B960E9476022C960FB6F89464
:100FA000DEBF0FBECDBFDF91CF911F910F91FF909C
:100FB000EF90DF90CF90BF90AF900895CF92DF92E7
:100FC000EF92FF920F931F93CF93DF93CDB7DEB7CE
:100FD00029970FB6F894DEBF0FBECDBFFC01228566
:100FE00033852130310509F098C0248535853E963A
:100FF000DE01159680E090E08217930731F0419171
:101000004D93019685309105B9F74D815E816F81D1
:101010007885809172039091730345305105610585
:10102000710509F055C021E02093B70219864BE500
:1010300057E060E070E049835A836B837C8334E03F
:10104000C32ED12CE12CF12C870120E030E0A90146
:1010500065E070E00E94610724E030E04EE653E076
:10106000BC0180917203909173030E94F1062EE0FF
:1010700030E043E551E0BC0180917203909173032D
:101080000E94F10624E030E0AE014F5F5F4FBC01EB
:1010900080917203909173030E94F10621E030E089
:1010A000AE01475F5F4FBC01809172039091730363
:1010B0000E94F106BC0180917203909173030E941B
:1010C000CC0681E090E09093B6028093B50225C0F3
:1010D0001092B702CC24C394D12CE12CF12C8701BF
:1010E00020E030E0A90166E070E00E94610724E0A2
:1010F00030E04EE653E0BC0180917203909173039F
:101100000E94F106BC0180917203909173030E94CA
:10111000CC061092B6021092B50229960FB6F8943A
:10112000DEBF0FBECDBFDF91CF911F910F91FF901A
:10113000EF90DF90CF9008951F920F920FB60F920D
:1011400011242F933F934F935F936F937F938F93CC
:101150009F93AF93BF93EF93FF938091B900887FE4
:10116000803609F49CC068F5883209F45BC090F4BD
:10117000803109F454C038F4882309F4F6C088306B
:1011800009F44DC0F6C0883109F44CC0803209F42E
:101190005DC0EFC0803409F468C048F4803309F4BE
:1011A00055C0883309F0E5C080931503D8C0803559
:1011B00009F44FC0883509F45DC0883409F0D9C0FE
:1011C000D6C0883909F4C7C0A8F4883709F467C0C5
:1011D00038F4883609F463C0803709F460C0C9C0A8
:1011E000883809F4B8C0803909F45FC0803809F044
:1011F000C0C05BC0803B09F486C038F4803A09F473
:1012000066C0883A09F47FC0B4C0803C09F4A7C026
:10121000883C09F4A4C0883B09F48AC0AAC0809124
:10122000F20210C09091140380911303981770F587
:10123000E091140381E08E0F80931403F0E0ED50F1
:10124000FD4F80818093BB0085EC86C080931503A1
:101250008EC0E091140381E08E0F8093140380917F
:10126000BB00F0E0ED50FD4F80839091140380911E
:1012700013036EC0E091140381E08E0F809314037A
:101280008091BB00F0E0ED50FD4F8083809116030C
:1012900081116DC081E08093F10284EA61C083E036
:1012A0008093170310929302CFCF809193028032E4
:1012B00008F051C0E091930281E08E0F8093930279
:1012C0008091BB00F0E0ED58FD4F8083BDCF85ECF1
:1012D0008093BC001092170380919302803230F407
:1012E000E0919302F0E0ED58FD4F1082609193027F
:1012F00070E0E0917102F091720283E792E009954B
:101300001092930236C084E080931703109270020B
:1013100010926F02E0916D02F0916E02099580913A
:101320006F02811105C081E080936F0210924D021F
:10133000E091700281E08E0F80937002F0E0E35B39
:10134000FD4F80818093BB009091700280916F026D
:10135000981708F479CF85E88093BC000AC085EC23
:101360008093BC001092170304C0109215030E94D2
:101370009D02FF91EF91BF91AF919F918F917F91CE
:101380006F915F914F913F912F910F900FBE0F90F2
:101390001F901895EF92FF920F931F93CF93DF93B7
:1013A000CDB7DEB7A0970FB6F894DEBF0FBECDBFA6
:1013B0002091B702222309F4F6C07C0119821A8217
:1013C0001B821C82FE01359680E1DF011D928A9509
:1013D000E9F7B701CE014B960E94200E62E671E05C
:1013E000CE0145960E94200EBE016B5E7F4FCE015E
:1013F0004B960E94990D8C01CE0145960E94F00DEE
:10140000012B49F46091A1027091A2028091A30284
:101410009091A40239C06BE771E0CE0145960E941D
:10142000200EBE016B5E7F4FCE014B960E94990D40
:101430008C01CE0145960E94F00D012B49F460917C
:10144000B1027091B2028091B3029091B4021CC0BB
:1014500069E971E0CE0145960E94200EBE016B5EE7
:101460007F4FCE014B960E94990D8C01CE0145967F
:101470000E94F00D012B69F460919D0270919E0213
:1014800080919F029091A0028E010F5F1F4F21E07B
:101490005AC066EB71E0CE0145960E94200EBE0157
:1014A0006B5E7F4FCE014B960E94990D8C01CE0151
:1014B00045960E94F00D012B49F46091A5027091B0
:1014C000A6028091A7029091A802DECF62ED71E0A2
:1014D000CE0145960E94200EBE016B5E7F4FCE016D
:1014E0004B960E94990D8C01CE0145960E94F00DFD
:1014F000012B49F46091A9027091AA028091AB027C
:101500009091AC02C1CF60EF71E0CE0145960E9490
:10151000200EBE016B5E7F4FCE014B960E94990D4F
:101520008C01CE0145960E94F00D012B89F460914B
:10153000AD027091AE028091AF029091B0028E0127
:101540000F5F1F4F22E041E00E94131AB80124C030
:101550006FE072E0CE0145960E94200EBE016B5EE8
:101560007F4FCE014B960E94990D8C01CE0145967E
:101570000E94F00D012B99F4E0910001F0E0EE0FD4
:10158000FF1FE155FF4F65917491CE0101960E94B6
:10159000331ABE016F5F7F4FC7010E94860BCE01D9
:1015A0004B960E94F00DA0960FB6F894DEBF0FBECA
:1015B000CDBFDF91CF911F910F91FF90EF900895D4
:1015C00020913A0390914506213208F04AC080915B
:1015D00017038111FCCF32E03093170331E03093D1
:1015E00016033FEF30931503109214032093130357
:1015F000AAE1B3E043EF52E0FA013E2F341B321769
:1016000018F43D913193F9CF1092F2022091F20239
:10161000990F922B9093F2029091F102913061F424
:101620001092F1029091F2029093BB009091BC0055
:1016300093FDF8CF95EC01C095EE9093BC0090918E
:1016400017039230E1F3909115039F3F79F0809159
:101650001503803241F080911503803331F084E02E
:1016600005C081E003C082E001C083E0109219034D
:1016700010923A0310921803089590911703911154
:10168000FCCF813208F080E291E0909317039093B1
:1016900016032FEF2093150310921403280F2093A5
:1016A00013039093F2029091F2029E6E9093F202D5
:1016B0009091F102913061F41092F1029091F20256
:1016C0009093BB009091BC0093FDF8CF95EC01C0C6
:1016D00095EE9093BC00909117039130E1F39091B7
:1016E0001403981710F480911403A3EFB2E021EDD6
:1016F00032E0F9019E2F921B981718F49D91919357
:10170000F9CF1092D0028093CF0208956F927F920A
:101710008F929F92AF92BF92CF92DF92EF92FF9201
:101720000F931F93CF93DF9300D000D0CDB7DEB7D8
:101730003C014B01FB0101900020E9F73197E61BCA
:10174000F70BFA83E9831C821B828EE6A82E83E0C6
:10175000B82E96E0C92ED12CE12CF12C870120E087
:1017600030E0A90167E070E0F501848195810E9475
:10177000610724E030E0A501BC01F5018481958179
:101780000E94F106F30101900020E9F731979F01D3
:1017900026193709A301BC01F501848195810E94B6
:1017A000F10629813A81A401BC01F501848195816A
:1017B0000E94F10622E030E0AE014F5F5F4FBC01B6
:1017C000F501848195810E94F10621E030E0AE01AF
:1017D0004D5F5F4FBC01F501848195810E94F10648
:1017E00021E030E0AE014C5F5F4FBC01F501848128
:1017F00095810E94F106BC01F501848195810E94CA
:10180000CC060F900F900F900F90DF91CF911F910A
:101810000F91FF90EF90DF90CF90BF90AF909F908F
:101820008F907F906F900895CF93C1E0C09318037D
:1018300097E7909345061092190310923A03682F88
:101840008BE393E00E942B030E94E00AC0931803ED
:101850001092190310923A0381E090E00E943D0B30
:101860008BE393E00E94DF02C82F0E94E00A8C2FD6
:10187000CF910895CF93DF93C1E0C093180397E70A
:10188000909345061092190310923A03682F8BE348
:1018900093E00E942B030E94E00AC0931803109269
:1018A000190310923A0382E090E00E943D0B8BE313
:1018B00093E00E94DF02D82F80E0C82F8BE393E0F3
:1018C0000E94DF02C82BD92B0E94E00ACE01DF91D3
:1018D000CF910895CF93C82F81E08093180387E7B5
:1018E000809345061092190310923A0364EF8BE33C
:1018F00093E00E942B036C2F8BE393E00E942B0359
:10190000CF910C94E00A8EE20E946A0C65E070E0D0
:1019100080E090E00E94D90486EF0C943A0CAF92DC
:10192000BF92CF92DF92EF92FF920F931F93CF93CC
:10193000DF935C01EB0182E0C82ED12CE12CF12C6D
:1019400087012EE833E0032E000C440B550B63E0B7
:1019500070E08CE893E00E946107F501019000209F
:10196000E9F731979F012A193B09A501BC018CE8D1
:1019700093E00E94F106FE0101900020E9F7319703
:101980009F012C1B3D0BAE01BC018CE893E00E9433
:10199000F106BC018CE893E0DF91CF911F910F918C
:1019A000FF90EF90DF90CF90BF90AF900C94CC065B
:1019B0009CB59F7D9CBD9CB5937F9CBD9CB59C7F39
:1019C0009CBD9DB59E7F9DBD682F809148030C9462
:1019D0005104CF9380E090E00E94D80C81EE0E94E9
:1019E0006905C82F81E090E00E94D80C8C2FCF9120
:1019F0000895CF9380E090E00E94D80C82EE0E9480
:101A00006905C82F81E090E00E94D80C8C2FCF91FF
:101A10000895EF92FF920F931F93CF93DF9300D01F
:101A2000CDB7DEB7082F162F80E090E049837A8388
:101A30000E94D80C802F8F7180620E946905082F48
:101A4000E12E7A81F72E4981140F1E1531F0F7012E
:101A500081917F010E946905F8CF81E090E00E94AA
:101A6000D80C802F0F900F90DF91CF911F910F9185
:101A7000FF90EF9008951F93CF93DF931F92CDB700
:101A8000DEB7182F80E090E069830E94D80C812F88
:101A90008F7180620E946905182F6981862F0E94CC
:101AA000690581E090E00E94D80C812F0F90DF91B2
:101AB000CF911F910895CF93C82F80E090E00E94AE
:101AC000D80C8C2F8F710E9469058FEF0E946905D9
:101AD000C82F81E090E00E94D80C8C2FCF91089500
:101AE0000F931F93CF938C0186E00E945B0D1092A1
:101AF0004903C82FC77D0230110511F4C06207C029
:101B00000130110521F481E080934903C8606C2FF6
:101B100086E00E943B0D86E00E945B0D8C1721F051
:101B20001092490380E001C081E0CF911F910F9195
:101B30000895CF93DF93DC01ED91FC91EB01A88137
:101B4000B981309711F01097C9F4109759F0EB0153
:101B50002C813D81232B31F08C9190E091958195E2
:101B6000910914C0309781F0DC0114968D919C91FD
:101B70001597892B49F0808190E008C0BD01CF0105
:101B8000DF91CF910C94031A80E090E0DF91CF9128
:101B900008950F931F93CF93DF93EC018881998170
:101BA000009729F02A813B812617370788F48B019B
:101BB0006F5F7F4F0E942B19009761F09983888394
:101BC0001B830A832C813D81232B11F4FC0110829D
:101BD00081E001C080E0DF91CF911F910F910895C6
:101BE000FC01808191810C949318CF92DF92EF9247
:101BF000FF920F931F93CF93DF936C017A018B01B8
:101C0000C0E0D0E0CE15DF0589F0D8016D918D01DF
:101C1000D601ED91FC910190F081E02DC60109956E
:101C2000892B11F47E0102C02196ECCFC701DF9110
:101C3000CF911F910F91FF90EF90DF90CF9008957B
:101C4000EF92FF920F931F93CF93DF93EC011982D2
:101C500018821B821A821D821C826115710549F14E
:101C60008B01FB0101900020E9F731977F01E61A13
:101C7000F70AB7010E94C90D2881398181110DC071
:101C80002115310519F0C9010E9493181982188293
:101C90001D821C821B821A820CC0FD82EC82B8015C
:101CA000C901DF91CF911F910F91FF90EF900C949C
:101CB0000C1ADF91CF911F910F91FF90EF90089533
:101CC000CF93DF93CDB7DEB7A7970FB6F894DEBFFB
:101CD0000FBECDBF789484B5826084BD84B5816029
:101CE00084BD85B5826085BD85B5816085BD8091E7
:101CF0006E00816080936E0010928100809181005F
:101D00008260809381008091810081608093810056
:101D1000809180008160809380008091B100846018
:101D20008093B1008091B00081608093B000809179
:101D30007A00846080937A0080917A008260809338
:101D40007A0080917A008E7F80937A0080917A0069
:101D5000806880937A001092C100E091B805F091FC
:101D6000B90582E08083E091B405F091B505108259
:101D7000E091B605F091B70580E180831092C0052F
:101D8000E091BC05F091BD0586E08083E091BA0545
:101D9000F091BB05808180618083E091BA05F0916C
:101DA000BB05808188608083E091BA05F091BB0516
:101DB000808180688083E091BA05F091BB058081C5
:101DC0008F7D80831092B6021092B50261E087E0A9
:101DD0000E949D0460E087E00E94510483E08093AC
:101DE00057031092D0021092CF0210921903109252
:101DF0003A031092170311E0109316031092F102A8
:101E000061E082E10E94510461E083E10E9451049B
:101E10008091B9008E7F8093B9008091B9008D7F49
:101E20008093B90080E28093B80085E48093BC0081
:101E300080ED0E94140C853509F0A1C18AEA0E9448
:101E40003A0C90935903809358038CEA0E943A0C01
:101E500090935B0380935A038EEA0E943A0C90930E
:101E60005D0380935C0380EB0E943A0C90936903BE
:101E70008093680382EB0E943A0C90936B038093EB
:101E80006A0384EB0E943A0C90936D0380936C0379
:101E900086EB0E943A0C90935F0380935E0388EB7D
:101EA0000E943A0C90936103809360038AEB0E9436
:101EB0003A0C90936303809362038CEB0E943A0C7C
:101EC00090936503809364038EEB0E943A0C909389
:101ED0006703809366031093C60261E08091470315
:101EE0000E949D0461E0809148030E949D041FB7F9
:101EF000F8948091B802811127C0EBE0F1E0849161
:101F0000EFE1F1E09491E82FF0E0EE0FFF1FE552D2
:101F1000FF4FA591B491EC91E92321F461E08AE0AF
:101F20000E94510461E08AE00E949D048CB58061AA
:101F30008CBD8CB580648CBD61E08DE00E949D04F9
:101F400061E08BE00E949D048091B8028F5F8093D6
:101F5000B8021FBF60E0809147030E94510481E0F6
:101F600090E00E94D80C65E070E080E090E00E9474
:101F7000D9046FE484E00E943B0D86E00E945B0D73
:101F8000682F666086E00E943B0D82E090E00E9430
:101F9000700D882319F081E080934A0380E090E07F
:101FA0000E94700D80E00E945B0D682F6C6080E0E5
:101FB0000E943B0D60E08CE10E943B0D60E787E0F2
:101FC0000E943B0D6CE485E00E943B0D0E94F90CE1
:101FD0000E94E90C62E070E080E090E00E94D90489
:101FE0006DE685E00E943B0D80E090E00E94700D60
:101FF00086E00E945B0D897F682F646086E00E9406
:102000003B0D8AEA898783EF8A8788EF8B8789EF80
:102010008C8781EF8D871E861F86188AE2EFF0E09D
:10202000849145E0BE01675F7F4F0E94090DECEE91
:10203000F0E0849160914B030E943B0D82E00E948E
:102040005B0DE6EEF0E0E49161E070E001C0660F48
:10205000EA95EAF7682B82E00E943B0D80E00E943F
:102060005B0D682F636080E00E943B0D60E787E0B6
:102070000E943B0D20914F0330915003409151033A
:102080005091520360915303709154038091550312
:1020900090915603A0E00E94751731F045E06FE47F
:1020A00073E08AE00E94090D0E94F90C0E94E90C7D
:1020B00061E0809147030E94510480E091E0019724
:1020C000F1F761E08091A6050E94510464EF71E090
:1020D00080E090E00E94D904C12CD12CE12CF12C9D
:1020E000870120E030E0A90161E070E08CE893E036
:1020F0000E946107BC018CE893E00E94CC0664EF6B
:1021000071E080E090E00E94D90475E0B72E109253
:102110009A031092940310929503109296031092D2
:102120009703C12CD12CE12CF12C8701E39420E002
:1021300030E0A90162E070E08CE893E00E94610762
:10214000BC018CE893E00E94CC060E9413056B0151
:102150007C0180919A03811115C00E941305DC0156
:10216000CB018C199D09AE09BF09883E9340A1059A
:10217000B10540F48CE893E00E947005EACF10921C
:10218000C602ABCE80919A03882361F080919403BC
:1021900090919503A0919603B0919703892B8A2B78
:1021A0008B2B21F4BA94B110B2CFAFCF81E08B8FDB
:1021B00088E790E09A8F898F89E0C82ED12CE12C96
:1021C000F12C8701E39420E030E0A90164E070E0A5
:1021D00080917203909173030E9461072EE030E0BA
:1021E0004DE352E0BC0180917203909173030E9411
:1021F000F10620E030E042E551E0BC01809172033D
:10220000909173030E94F10620E030E042E551E036
:10221000BC0180917203909173030E94F10622E049
:1022200030E0AE01475E5F4FBC0180917203909138
:1022300073030E94F10621E030E0AE01455E5F4F7E
:10224000BC0180917203909173030E94F10644E7F0
:1022500053E0052E000C660B770B49835A836B8382
:102260007C8324E030E0DE0111961D01AD01BC014C
:1022700080917203909173030E94F1064AE753E044
:10228000052E000C660B770B49835A836B837C8386
:1022900024E030E0A101BC018091720390917303AE
:1022A0000E94F10640E853E0052E000C660B770B08
:1022B00049835A836B837C8324E030E0A101BC0115
:1022C00080917203909173030E94F10646E853E0F7
:1022D000052E000C660B770B49835A836B837C8336
:1022E00024E030E0A101BC0180917203909173035E
:1022F0000E94F106BC0180917203909173030E94C9
:10230000CC060091720310917303F80116861086B3
:10231000118612861386158614860E9413056B019A
:102320007C01D8011E968C91811111C00E94130569
:10233000DC01CB018C199D09AE09BF09803D974096
:10234000A105B10520F4C8010E947005EACFF8018B
:102350008685882389F0E0917203F0917303848568
:102360009585892B49F080859185A285B385009755
:10237000A105B10509F087C41092B6021092B5020A
:10238000F4E0F20DFEA39E012F5E3F4F3D8F2C8F98
:102390002C5F2FA38CE893E00E9470058091CD0202
:1023A0009091CE020196883E33E093072CF49093EF
:1023B000CE028093CD020EC01092CE021092CD02BA
:1023C0008091B702811106C06CE272E086E392E070
:1023D0000E948F0C8091B5029091B60282309105D7
:1023E00071F03CF40097B9F0019709F048C061E042
:1023F00013C083309105C1F0049749F140C080912A
:10240000CB029091CC0201969093CC028093CB02A8
:1024100085369105C4F060E087E00E945104109277
:10242000CC021092CB022BC08091CB029091CC02B7
:1024300001969093CC028093CB02813A91057CF770
:102440008D3391059CF4C397D4F061E010C0809166
:10245000CB029091CC0201969093CC028093CB0258
:10246000833D9105E4F68F3691052CF060E087E01E
:102470000E94510404C08536910514F3E6CF80E034
:1024800090E00E94D80C8FEF0E946905182F81E020
:1024900090E00E94D80C16FF55C060E487E00E94CF
:1024A0003B0D15FF1DC460E287E00E943B0D18C480
:1024B00081E090E00E94D80C87E10E945B0DDE0174
:1024C0005596F10181E091919D93911180E02EA1AB
:1024D0002E13F9CF81110CC08D899E89AF89B88DDB
:1024E0008093B1029093B202A093B302B093B4026E
:1024F000DE011596FE01719681E09D9191939111F7
:1025000080E03FA13E13F9CF811114C069897A8917
:102510008B899C890E94A71C20E030E04AE754E4A4
:102520000E9487176093AD027093AE028093AF0252
:102530009093B0028BE791E00E94CA0980EF91E08E
:102540000E94CA098091C7029091C802A091C90255
:10255000B091CA020196A11DB11D81364AEE9407C1
:10256000A105B1054CF48093C7029093C802A093D3
:10257000C902B093CA027EC31092C7021092C80269
:102580001092C9021092CA02EDE1F1E01491E9E063
:10259000F1E0E491F0E0EE0FFF1FE950FF4FE5900E
:1025A000F49061E088E00E949D0460E088E00E9471
:1025B00051048CEC97E00197F1F761E088E00E940C
:1025C000510460E088E00E949D0420E931E0D701D9
:1025D0008C91812329F021503109C9F71DEF68C082
:1025E00028EC30E0F7018081812329F42150310962
:1025F000C9F71CEF5DC028EC30E0D7018C91812336
:1026000029F021503109C9F71BEF52C0712C80E825
:1026100000E040E050E028EC30E0A8ECB0E068E2F8
:1026200090E0F7017081712391F5992381F1633274
:10263000B0F02A173B0708F4D90138EC832E912C0F
:10264000A12CB12C8A1A9B0AA108B10842E0B594CA
:10265000A794979487944A95D1F7A40107C06D0178
:10266000C41AD50AC216D30608F0082B90E0959537
:102670008795009749F4872D90E087549D4FFC0182
:102680000087739400E080E8615028EC30E021502E
:10269000310969F0972F6111C4CF61E088E00E9491
:1026A0009D0461E088E00E94510410E001C01EEF2B
:1026B0008091C1028370B82E8093C1020091C30241
:1026C000F02FF378AF2EF093C3029090C202682FE0
:1026D00070E0762F6627690D711D072E000C880BA0
:1026E000990B0E94A71C2DEC3CEC4CEC5DE30E9486
:1026F000061D6B017C016093B9027093BA0280934E
:10270000BB029093BC028090C4020370602F70E003
:10271000762F6627680D711D072E000C880B990B0C
:102720000E94A71C2DEC3CEC4CEC5DE30E94061DC6
:10273000A7FC09C06093BD027093BE028093BF02E4
:102740009093C0020BC0DC01CB01B0588093BD0256
:102750009093BE02A093BF02B093C002980CB90C34
:10276000AB0C8091C5028A111FEFE5E0E10FE63066
:1027700028F4F0E0E35FFE4FA08002C0E6E0AE2E5A
:102780004090BD025090BE026090BF027090C002A7
:1027900020E030E044EB52E4C301B2010E94A01CEF
:1027A000B82EBB1CBB24BB1C01E020E030E0A9011B
:1027B000C301B2010E94F91718160CF000E0B02214
:1027C00001E020E030E0A901C701B6010E94F9173D
:1027D00018160CF000E0B02201E020E030E048ECF8
:1027E00052E4C701B6010E94A01C18160CF400E0C8
:1027F0000B2101F111111EC0C092A102D092A202C0
:10280000E092A302F092A40240929D0250929E0296
:1028100060929F027092A002A092000182E691E075
:102820000E94CA0989E991E00E94CA098FE092E0FA
:102830000E94CA098091C602882309F41BC20E9423
:10284000830C6C01E12CF12C809157038295880F49
:10285000880F807C8C5C0E946A0C809157038111E8
:1028600005C065E070E080E090E012C0813029F49E
:1028700068E070E080E090E00BC0823029F46EE008
:1028800070E080E090E004C06AE170E080E090E0F9
:102890000E94D90486EF0E943A0C4C01A12CB12C65
:1028A000BA2CA92C982C882488EF0E94140C882A12
:1028B0001091570380916C0390916D03A7019601CD
:1028C000281B390B41095109A0916A03B0916B0390
:1028D0000E94C41D6B017C010FE0F594E794D7942E
:1028E000C7940A95D1F76091640370916503CB0199
:1028F000770FAA0BBB0BBC01CD012BE0660F771F36
:10290000881F991F2A95D1F720916603309167039C
:102910002901330F66087708A7019601240D351D9C
:10292000461D571D0E944E17C20ED31EE41EF51EF3
:1029300020EAC21A2FE0D20AE108F108A7019601A5
:10294000C701B6010E941C179B01AC016CE05595B4
:102950004795379527956A95D1F72E8F3F8F48A3D6
:1029600059A3E0915803F0915903A0915C03B091F1
:102970005D03A70196010E946D172B013C017DE0CC
:1029800075946794579447947A95D1F7A0915E0314
:10299000B0915F032E8D3F8D48A159A10E946D1704
:1029A000BB2797FDB095AB2F840D951DA61DB71DB8
:1029B0000296A11DB11D02E0B595A7959795879543
:1029C0000A95D1F79C01AD0130584F4F5F4FA09150
:1029D0006803B09169030E94C41D2B013C018FE084
:1029E00076946794579447948A95D1F788E090E05D
:1029F000811B9109A501940104C05695479537950F
:102A000027958A95D2F72AA33BA34CA35DA34F0138
:102A1000FF0FAA08BB0892E0880C991CAA1CBB1CDB
:102A20009A95D1F7A0916003B09161032E8D3F8DEF
:102A300048A159A10E946D179B01AC016BE055950F
:102A40004795379527956A95D1F72E8F3F8F48A3E5
:102A500059A3A0915A03B0915B03A70196010E946C
:102A60006D17DC01CB017BE0B595A7959795879510
:102A70007A95D1F72E8D3F8D48A159A1820F931FD2
:102A8000A41FB51F880D991DAA1DBB1D012E04C0D2
:102A9000880F991FAA1FBB1F0A94D2F7BC01CD0152
:102AA0006E5F7F4F8F4F9F4F24E030E040E050E05B
:102AB0000E944E178AA19BA1ACA1BDA1821B930BC2
:102AC000A40BB50B9C01AD0160E573EC80E090E0D8
:102AD00004C096958795779567951A95D2F70E94C9
:102AE0001C1797FD0BC0660F771F881F991FA30146
:102AF00092010E942C1749015A010AC0A3019201B8
:102B00000E942C1749015A01880C991CAA1CBB1C55
:102B10009927B7FC9A958B2D7A2D692D9B01AC01D5
:102B20000E941C179B01AC01AEEDBBE00E94C41DCE
:102B30002C01772457FC7094672CA3E4B3EEA50115
:102B400094010E9470176C01FF24D7FCF094EF2CC5
:102B5000C40CD51CE61CF71C9FECC90E9EE0D91EC8
:102B6000E11CF11C54E0F594E794D794C7945A956E
:102B7000D1F7C80CD91CEA1CFB1C0E94830CAC01C9
:102B800060E070E080916C0390916D039A01AB015D
:102B9000281B390B41095109A0916A03B0916B03BD
:102BA0000E94C41D4B015C016FE0B594A7949794FB
:102BB00087946A95D1F76091640370916503CB01A6
:102BC000770FAA0BBB0BBC01CD01EBE0660F771FA3
:102BD000881F991FEA95D1F720916603309167030A
:102BE0008901330F220B330BA9019801280D391DE0
:102BF0004A1D5B1D0E944E17D501C401820F931F11
:102C0000A41FB51F0896A11DB11DBC01CD01F4E0A4
:102C10009595879577956795FA95D1F70E94A71CAA
:102C200020E030E040E251E40E9487174B015C0154
:102C3000C701B6010E94A71C20E030E04AE754E437
:102C40000E9487176093A9027093AA028093AB0237
:102C50009093AC028092A5029092A602A092A70245
:102C6000B092A80282ED91E00E94CA0986EB91E041
:102C70000E94CA096AE070E080E090E00E94D904F6
:102C80000E94FF0187CB80936E0390936F03A09304
:102C90007003B09371038EE593E090937703809374
:102CA00076038BE593E090937D0380937C038AE524
:102CB00093E0909383038093820389EC93E0909355
:102CC0008903809388038EED97E09093910380931E
:102CD00090036CE272E086E392E00E948F0C50CB8E
:102CE00010914B03012F193008F008E080914D033B
:102CF000811102C0101B01C010E080E090E00E9432
:102D0000D80C81E60E9469057101015038F08FEFFF
:102D10000E946905D7018D937D01F7CF112309F436
:102D2000C7CB8FEF0E9469051150F8CFCF93DF9387
:102D3000E8EAF5E01382128248EE53E060E070E0CA
:102D400044835583668377838FE191E09183808309
:102D500085EC90E09587848784EC90E09787868760
:102D600080EC90E0918B808B81EC90E0938B828B58
:102D700082EC90E0958B848B86EC90E0978B868B31
:102D8000118E128E138E148EABE3B3E013961C9249
:102D90001E92129714964D935D936D937C931797A3
:102DA0008FE291E08D939C93CCE8D3E01B821A8252
:102DB0001D821C82F88BEF87F093A705E093A60590
:102DC000198A86EA93E09B8B8A8B80E092E09D8B48
:102DD0008C8B1F8A1E8A188E61E08E2F0E949D04A4
:102DE000EEE6F3E0178216821186108615861486A9
:102DF00017861686138A128A158A148A118E108EE7
:102E0000138E128ED583C483E7E4F3E089E08083D8
:102E10008AE0818381E08283138280E28483158249
:102E200016821086118612861386148615861686DB
:102E30001786DF91CF910895DB018F939F930E94B6
:102E4000C41DBF91AF91A29F800D911DA39F900DB6
:102E5000B29F900D11240895A1E21A2EAA1BBB1B4C
:102E6000FD010DC0AA1FBB1FEE1FFF1FA217B30756
:102E7000E407F50720F0A21BB30BE40BF50B661F6C
:102E8000771F881F991F1A9469F760957095809530
:102E900090959B01AC01BD01CF010895052E97FBD4
:102EA0001EF400940E94651757FD07D00E942C174E
:102EB00007FC03D04EF40C9465175095409530955F
:102EC00021953F4F4F4F5F4F089590958095709596
:102ED00061957F4F8F4F9F4F0895B7FF0C94C41D8E
:102EE0000E94C41D821B930B08950024A7FD00942B
:102EF0002A173005400550056005700580059005CE
:102F00000895EE0FFF1F0590F491E02D09940E94A3
:102F10009B170C948A1D0E94831D58F00E947C1DF3
:102F200040F029F45F3F29F00C94731D51110C946B
:102F3000BE1D0C94791D0E949B1D68F39923B1F36B
:102F4000552391F3951B550BBB27AA2762177307CF
:102F5000840738F09F5F5F4F220F331F441FAA1F63
:102F6000A9F335D00E2E3AF0E0E832D0915050401F
:102F7000E695001CCAF72BD0FE2F29D0660F771FCD
:102F8000881FBB1F261737074807AB07B0E809F0B3
:102F9000BB0B802DBF01FF2793585F4F3AF09E3F38
:102FA000510578F00C94731D0C94BE1D5F3FE4F343
:102FB000983ED4F3869577956795B795F7959F5F7B
:102FC000C9F7880F911D9695879597F90895E1E0C7
:102FD000660F771F881FBB1F621773078407BA0726
:102FE00020F0621B730B840BBA0BEE1F88F7E09581
:102FF00008950E94E21C08F48FEF0895CF93DF93A9
:103000008230910510F482E090E0E0914806F09162
:10301000490620E030E0C0E0D0E0309711F1408177
:10302000518148175907C0F04817590761F4828148
:103030009381209719F09B838A832BC09093490634
:103040008093480626C02115310519F04217530711
:1030500018F49A01BE01DF01EF010280F381E02D37
:10306000DCCF2115310509F1281B390B243031053E
:1030700090F412968D919C9113976115710521F032
:10308000FB019383828304C0909349068093480692
:10309000FD01329644C0FD01E20FF31F819391932D
:1030A000225031092D933C933AC02091460630912D
:1030B0004706232B41F42091030130910401309302
:1030C0004706209346062091010130910201211507
:1030D000310541F42DB73EB74091050150910601ED
:1030E000241B350BE0914606F0914706E217F307E3
:1030F000A0F42E1B3F0B2817390778F0AC014E5F68
:103100005F4F2417350748F04E0F5F1F5093470657
:10311000409346068193919302C0E0E0F0E0CF0136
:10312000DF91CF9108950F931F93CF93DF93009773
:1031300009F48CC0FC013297138212820091480678
:10314000109149060115110581F420813181820F0A
:10315000931F20914606309147062817390779F5C5
:10316000F0934706E093460671C0D80140E050E076
:10317000AE17BF0750F412962D913C911397AD01F5
:103180002115310509F1D901F3CF9D01DA0133830E
:10319000228360817181860F971F8217930769F4DC
:1031A000EC0128813981260F371F2E5F3F4F318375
:1031B00020838A819B8193838283452B29F4F0931A
:1031C0004906E093480642C01396FC93EE9312978B
:1031D000ED01499159919E01240F351FE217F30724
:1031E00071F480819181840F951F029611969C93B2
:1031F0008E938281938113969C938E931297E0E035
:10320000F0E0D80112968D919C911397009719F0D8
:10321000F8018C01F6CF8D919C9198012E5F3F4F64
:10322000820F931F209146063091470628173907D1
:1032300069F4309729F4109249061092480602C0AA
:10324000138212821093470600934606DF91CF91B6
:103250001F910F910895A0E0B0E0E1E3F9E10C9433
:10326000D31DEC01009721F4CB010E94FE17B8C0DA
:10327000FC01E60FF71F9C0122503109E217F3070A
:1032800008F4ACC0D9010D911C91119706171707CE
:10329000B0F00530110508F49FC0C80104978617E7
:1032A000970708F499C002501109061B170B0193E8
:1032B00011936D937C93CF010E9493188DC05B0195
:1032C000A01AB10A4C01800E911EA0914806B0913F
:1032D000490640E050E0E12CF12C109709F44AC077
:1032E000A815B905D1F56D907C901197630182E026
:1032F000C80ED11CCA14DB0480F1A3014A195B0972
:103300006A0182E0C80ED11C1296BC9012971396E7
:10331000AC91B5E0CB16D10440F0B282A3835183C7
:103320004083D9016D937C930AC00E5F1F4FC30188
:10333000800F911FF90191838083EB2DFA2FE11407
:10334000F10431F0D7011396FC93EE93129744C029
:10335000F0934906E09348063FC08D919C911197E8
:103360004817590708F4AC017D0112960D90BC91E5
:10337000A02DB3CF809146069091470688159905F8
:10338000E1F446175707C8F48091010190910201BA
:10339000009741F48DB79EB7409105015091060109
:1033A000841B950BE817F907C8F4F0934706E093E0
:1033B0004606F901718360830FC0CB010E94FE179E
:1033C0007C01009759F0A801BE010E94FA19CE01B4
:1033D0000E949318C70104C0CE0102C080E090E0B3
:1033E000CDB7DEB7EEE00C94EF1D81E090E0F894ED
:1033F0000C94151EFB01DC0102C001900D9241509E
:103400005040D8F70895FB01DC018D91019080199F
:103410000110D9F3990B0895FB01DC0101900D9285
:103420000020E1F70895EF920F931F93CF93DF935E
:10343000E80147FD02C034E001C034E1E42F440F4D
:10344000FF0BF7FF03C0F195E195F109E32E022F81
:103450002E2FAE010E943A1ACE01DF91CF911F911B
:103460000F91EF900895FB01DC0105900D92002073
:10347000E1F708954F925F926F927F929F92AF9281
:10348000BF92CF92DF92EF92FF920F931F93CF9351
:10349000DF93CDB7DEB729970FB6F894DEBF0FBE26
:1034A000CDBF6A01122FB02E2BE3201720F0FF248E
:1034B000F394F00E02C0BCE3FB2E0F2D27E0AE010B
:1034C0004F5F5F4F0E94C81BAC018981982F997094
:1034D000913031F0E1FC06C0E0FE06C090E205C08C
:1034E0009DE203C09BE201C090E0EE2DE07183FFFE
:1034F0003CC0911102C083E001C084E0811718F440
:10350000212F281B01C020E0E1110BC0F601822F02
:1035100030E2882319F031938150FBCFC20ED11CC9
:1035200020E0992329F0D6019C93F60131966F0192
:10353000C6010396E2FE0AC03EE4D6013C9341E494
:1035400011964C93119712963C9306C03EE6F601F5
:10355000308341E641833283FC01322F40E2332342
:1035600009F442C041933150FACF82FF44C0911117
:1035700002C083E001C084E0811718F4212F281BCA
:1035800001C020E0E1110BC0F601822F30E2882358
:1035900019F031938150FBCFC20ED11C20E099234A
:1035A00029F0D6019C93F60131966F01C60103966E
:1035B000E2FE0BC039E4D6013C933EE411963C9305
:1035C000119736E412963C9307C039E6F601308332
:1035D0003EE6318336E63283FC01322F40E233236C
:1035E00019F041933150FBCFFC01E20FF11D108225
:1035F0008EEF9FEFB7C0F1E0911101C0F0E06F2FA7
:1036000070E01416150624F49A012F5F3F4F02C094
:1036100021E030E0260F371FBB2029F06B2D70E032
:103620006F5F7F4F02C060E070E0260F371F612F91
:1036300070E0261737071CF4121B212F01C020E071
:103640003E2D387159F4D601322F60E2332319F040
:103650006D933150FBCFC20ED11C20E0FF2331F01F
:10366000D6019C93B6016F5F7F4F6B01E1110BC0D8
:10367000F601922F30E3992319F031939150FBCF4B
:10368000C20ED11C20E09F2D940F3A81782F7071CB
:10369000A72E84FF03C0313309F49150191624F486
:1036A000993018F098E001C091E0E42F852F57FF82
:1036B00002C0E0E080E06E2F782FE0E0F0E0AEE2C4
:1036C0009A2E3A01691A71082A01461A570A0B2DD7
:1036D00010E01195019511096F3F8FEF780729F4DC
:1036E000D6019C92C60101966C014617570784F0DB
:1036F000661677066CF47F01E40CF51CA1E0B0E0DF
:10370000AC0FBD1FEA0EFB1ED7011196BC9002C084
:1037100090E3B92E615071093196C60101967C0182
:103720006017710724F0D601BC926C01D5CF6417E5
:10373000750741F4363320F4353321F4A11002C06B
:1037400081E3B82EF601B082F701822F90E2882340
:1037500019F091938150FBCFF701E20FF11D108218
:1037600080E090E029960FB6F894DEBF0FBECDBF83
:10377000DF91CF911F910F91FF90EF90DF90CF904D
:10378000BF90AF909F907F906F905F904F90089503
:10379000283008F027E03327DA01990F311D87FD23
:1037A000916000966105710539F432602E5F3D939A
:1037B00030E32A95E1F708959F3F30F08038710596
:1037C000610509F03C5F3C5F3D93913008F08068F3
:1037D000911DDF93CF931F930F93FF92EF92192FB9
:1037E000987F9695E92F96959695E90FFF27ED57C7
:1037F000FE4F99273327EE24FF24A701E701059008
:103800000894079428F4360FE71EF81E491F511D2F
:10381000660F771F881F991F0694A1F705900794DC
:1038200028F4E70EF81E491F561FC11D770F881F89
:10383000991F661F0694A1F70590079428F4F80EC7
:10384000491F561FC71FD11D880F991F661F771F5D
:103850000694A1F70590079420F4490F561FC71F3F
:10386000D81F990F661F771F881F0694A9F78491A8
:103870001095177041F0D695C79557954795F794D1
:10388000E7941A95C1F7E9E2F1E068941590159173
:1038900035916591959105907FE27395E118F10A54
:1038A000430B560BC90BD009C0F7E10CF11E431FA7
:1038B000561FC91FD01D7EF4703311F48A95E6CFD0
:1038C000E894015030F0080F0AF40027021708F4BA
:1038D000202F2395022F7A3328F079E37D932A95C0
:1038E000E9F710C07D932A9589F606949795679518
:1038F000379517951794E118F10A430B560BC90B2E
:10390000D00998F023957E9173957A3308F070E38F
:103910007C932013B8F77E9170617D9330F083958E
:1039200071E37D9370E32A95E1F71124EF90FF9006
:103930000F911F91CF91DF91992787FD9095089561
:103940000E94E21C08F481E00895E89409C097FB06
:103950003EF490958095709561957F4F8F4F9F4F66
:103960009923A9F0F92F96E9BB279395F6958795AA
:1039700077956795B795F111F8CFFAF4BB0F11F46D
:1039800060FF1BC06F5F7F4F8F4F9F4F16C0882314
:1039900011F096E911C0772321F09EE8872F762F4A
:1039A00005C0662371F096E8862F70E060E02AF08B
:1039B0009A95660F771F881FDAF7880F9695879577
:1039C00097F90895990F0008550FAA0BE0E8FEEF4C
:1039D00016161706E807F907C0F012161306E407D3
:1039E000F50798F0621B730B840B950B39F40A26CC
:1039F00061F0232B242B252B21F408950A2609F4AA
:103A0000A140A6958FEF811D811D08950E94191D6B
:103A10000C948A1D0E947C1D38F00E94831D20F0AA
:103A2000952311F00C94731D0C94791D11240C94A2
:103A3000BE1D0E949B1D70F3959FC1F3950F50E032
:103A4000551F629FF001729FBB27F00DB11D639F50
:103A5000AA27F00DB11DAA1F649F6627B00DA11DF6
:103A6000661F829F2227B00DA11D621F739FB00D9C
:103A7000A11D621F839FA00D611D221F749F33270C
:103A8000A00D611D231F849F600D211D822F762FA5
:103A90006A2F11249F5750409AF0F1F088234AF082
:103AA000EE0FFF1FBB1F661F771F881F91505040EE
:103AB000A9F79E3F510580F00C94731D0C94BE1D18
:103AC0005F3FE4F3983ED4F3869577956795B79575
:103AD000F795E7959F5FC1F7FE2B880F911D96958F
:103AE000879597F9089597F99F6780E870E060E0FF
:103AF00008959FEF80EC089500240A941616170687
:103B000018060906089500240A94121613061406CE
:103B100005060895092E0394000C11F4882352F031
:103B2000BB0F40F4BF2B11F460FF04C06F5F7F4FE9
:103B30008F4F9F4F089557FD9058440F551F59F0D0
:103B40005F3F71F04795880F97FB991F61F09F3F8A
:103B500079F087950895121613061406551FF2CFB3
:103B60004695F1DF08C0161617061806991FF1CF03
:103B700086957105610508940895E894BB2766272A
:103B80007727CB0197F908950E94061EA59F900DF7
:103B9000B49F900DA49F800D911D112408952F9224
:103BA0003F924F925F926F927F928F929F92AF92CD
:103BB000BF92CF92DF92EF92FF920F931F93CF931A
:103BC000DF93CDB7DEB7CA1BDB0B0FB6F894DEBFB1
:103BD0000FBECDBF09942A88398848885F846E84D7
:103BE0007D848C849B84AA84B984C884DF80EE8021
:103BF000FD800C811B81AA81B981CE0FD11D0FB62A
:103C0000F894DEBF0FBECDBFED010895A29FB001B5
:103C1000B39FC001A39F700D811D1124911DB29F00
:0E3C2000700D811D1124911D0895F894FFCFA1
:103C2E000600004A0680000F029901620105040198
:103C3E00020300B601D201F0017B010000000096E4
:103C4E0001F50D5F013D015101DD01000000002B6A
:103C5E0003FB02F302DF02D002CF02415244554968
:103C6E004E4F3A20496E76616C6964204352430090
:103C7E000D0A003139322E3136382E3130302E3198
:103C8E0031002F686F6D652F7765617465725F7394
:103C9E00746174696F6E2F68756D002F686F6D6536
:103CAE002F7765617465725F73746174696F6E2FBF
:103CBE0074656D705F6F7574002F686F6D652F770B
:103CCE0065617465725F73746174696F6E2F74656C
:103CDE006D705F696E002F686F6D652F776561740B
:103CEE0065725F73746174696F6E2F74656D705F4A
:103CFE0065002F686F6D652F7765617465725F73F0
:103D0E00746174696F6E2F7072657373757265006E
:103D1E002F686F6D652F7765617465725F7374615F
:103D2E0074696F6E2F726164696F5F626174002FC8
:103D3E00686F6D652F7765617465725F73746174FA
:103D4E00696F6E2F6468745F737473006165726F50
:103D5E00676C6173730057644C696E6B00576561D5
:0C3D6E007465725F53746174696F6E00BD
:00000001FF
