:100000000C94ED010C9415020C9415020C9415023D
:100010000C9415020C9415020C9415020C94150204
:100020000C9415020C9415020C9415020C941502F4
:100030000C9415020C9415020C9415020C941502E4
:100040000C9437180C9415020C94051B0C94371B58
:100050000C9415020C9415020C9415020C941502C4
:100060000C94AF080C941502BA00AC009E008F00EF
:10007000830077007600004552524F525F41434B58
:100080005F48004552524F525F41434B5F4C004521
:1000900052524F525F434845434B53554D004552D2
:1000A000524F525F54494D454F5554004552524F9F
:1000B000525F434F4E4E454354004F4B005041203A
:1000C000506F77657209203D2025530D0A00435279
:1000D00043204C656E67746809203D2025530D0A46
:1000E000004D6F64656C0909203D2025530D0A0001
:1000F00044617461205261746509203D2025530DCF
:100100000A0044594E50442F46454154555245002B
:10011000434F4E4649470052465F534554555000A1
:1001200052465F434800454E5F5258414444520096
:10013000454E5F41410052585F50575F50302D3659
:100140000054585F414444520052585F4144445265
:100150005F50322D350052585F414444525F503059
:100160002D31000D0A00253032780020307800252E
:1001700053092563203D000D0A00203078253032D8
:1001800078002553092563203D004F4253455256C0
:10019000455F54583D253032783A20504F4C535FDC
:1001A000434E543D2578204152435F434E543D25F4
:1001B000780D0A005354415455530909203D20300D
:1001C00078253032782052585F44523D25782054AB
:1001D000585F44533D2578204D41585F52543D258A
:1001E000782052585F505F4E4F3D25782054585F1D
:1001F00046554C4C3D25780D0A00000102030405CC
:100200001112131415160A0B0C0D0E0F2A022302DD
:100210001C02140250415F48494748004C415F4D61
:1002200045440050415F4C4F570050415F4D494E8F
:100230000046023F0237023136206269747300388B
:1002400020626974730044697361626C6564005D67
:100250000253026E524632344C30312B006E5246FD
:1002600032344C3031007A0274026C023235304B39
:1002700042505300324D42505300314D42505300D2
:100280000000000800020100000304070000000055
:100290000000000001020408102040800102040850
:1002A00010200102040810200404040404040404BF
:1002B0000202020202020303030303030000000020
:1002C00023002600290000000000250028002B0044
:1002D00000000000240027002A0000407A10F35A92
:1002E00000A0724E18090010A5D4E80000E8764876
:1002F000170000E40B54020000CA9A3B000000E122
:10030000F505000080969800000040420F000000B4
:10031000A08601000000102700000000E803000094
:1003200000006400000000000A000000000001005E
:10033000000000002C76D888DC674F0823DFC1DF7F
:10034000AE59E1B1B796E5E3E453C63AE651997682
:1003500096E8E6C28426EB898C9B62ED407C6FFCBC
:10036000EFBC9C9F40F2BAA56FA5F490055A2AF7FE
:100370005C936B6CF9676DC11BFCE0E40D47FEF507
:1003800020E6B500D0ED902E03009435770500806F
:10039000841E080000204E0A000000C80C333333CE
:1003A000330F986E12831141EF8D2114893BE6556E
:1003B00016CFFEE6DB18D1844B381BF77C1D901D51
:1003C000A4BBE424203284725E228100C9F124ECB3
:1003D000A1E53D278006C507671B11241FBECFEF8F
:1003E000D8E0DEBFCDBF12E0A0E0B1E0E6EBF7E47D
:1003F00002C005900D92A036B107D9F726E0A0E61D
:10040000B2E001C01D92A137B207E1F713E0CAEDD7
:10041000D3E004C02297FE010E94071FC43DD1070C
:10042000C9F70E94AB1B0C94D9230C94000081E007
:100430008093630208951092630208950895CF9304
:10044000DF93CDB7DEB762970FB6F894DEBF0FBE6D
:10045000CDBFBC01CE010D960E94690EBE01635F47
:100460007F4FCE0107960E94BA0EBE01635F7F4F99
:10047000CE0101960E94BA0ECE0101960E941C1C6C
:10048000CE0107960E941C1C62960FB6F894DEBF40
:100490000FBECDBFDF91CF9108950F931F93CF93E0
:1004A000DF93CDB7DEB72A970FB6F894DEBF0FBE45
:1004B000CDBFBC01CE0101960E94690ECE0101960E
:1004C0000E94730E8C018130910581F544E050E06B
:1004D000BE01695F7F4FCE0101960E947B0E4F8166
:1004E000588569857A854530510561057105A1F406
:1004F00081E08093640260911401709115012BE5F5
:1005000037E040E050E08CEC92E00E9471141093D0
:100510006C0200936B020AC0109264028CEC92E0B1
:100520000E94771410926C0210926B022A960FB6FA
:10053000F894DEBF0FBECDBFDF91CF911F910F9119
:100540000895EF92FF920F931F93CF93DF93CDB750
:10055000DEB7A0970FB6F894DEBF0FBECDBF7C010B
:1005600080916402882309F406C119821A821B82D1
:100570001C82FE01359680E1DF011D928A95E9F724
:10058000B701CE014B960E948A1C609112017091B6
:100590001301CE0145960E948A1CBE016B5E7F4FFF
:1005A000CE014B960E94DF1C8C01CE0145960E9425
:1005B0001C1C012B49F460917502709176028091A8
:1005C0007702909178023DC0609110017091110105
:1005D000CE0145960E948A1CBE016B5E7F4FCE0104
:1005E0004B960E94DF1C8C01CE0145960E941C1C7C
:1005F000012B49F460918102709182028091830203
:10060000909184021EC060910E0170910F01CE0185
:1006100045960E948A1CBE016B5E7F4FCE014B96B1
:100620000E94DF1C8C01CE0145960E941C1C012BF0
:1006300069F46091790270917A0280917B029091C5
:100640007C028E010F5F1F4F21E060C060910C01A2
:1006500070910D01CE0145960E948A1CBE016B5E11
:100660007F4FCE014B960E94DF1C8C01CE01459638
:100670000E941C1C012B49F460916D0270916E0266
:1006800080916F0290917002DCCF60910A017091AD
:100690000B01CE0145960E948A1CBE016B5E7F4F06
:1006A000CE014B960E94DF1C8C01CE0145960E9424
:1006B0001C1C012B49F460917102709172028091AF
:1006C000730290917402BDCF60910801709109018D
:1006D000CE0145960E948A1CBE016B5E7F4FCE0103
:1006E0004B960E94DF1C8C01CE0145960E941C1C7B
:1006F000012B81F460917D0270917E0280917F02D6
:10070000909180028E010F5F1F4F22E041E00E9416
:100710001A1F23C06091060170910701CE01459612
:100720000E948A1CBE016B5E7F4FCE014B960E94D9
:10073000DF1C8C01CE0145960E941C1C012BB9F4D4
:10074000E0911A01F0E0EE0FFF1FE859FF4F6591AD
:100750007491CE0101960E942C2101E020E0AE01AF
:100760004F5F5F4FB7018CEC92E00E942915CE01DC
:100770004B960E941C1CA0960FB6F894DEBF0FBECD
:10078000CDBFDF91CF911F910F91FF90EF90089512
:100790008F929F92AF92BF92CF92DF92EF92FF9291
:1007A0000F931F93CF93DF9368E08CEA92E00E944F
:1007B000CF0DD82FE5E0E80FE63028F4F0E0EC5E4E
:1007C000FD4FC08101C0C6E08090AC029090AD02A8
:1007D000A090AE02B090AF02C090B002D090B10233
:1007E000E090B202F090B30201E020E030E048EC8B
:1007F00052E4C501B4010E94101D18160CF400E06B
:1008000011E020E030E0A901C501B4010E942E1ED4
:1008100018160CF010E0012311E020E030E0A901EF
:10082000C701B6010E942E1E18160CF010E010230E
:1008300020E030E044EB52E4C701B6010E94101DF5
:10084000881F8827881F812391F1D11130C08092A1
:10085000750290927602A0927702B0927802C092CE
:100860007902D0927A02E0927B02F0927C02C093ED
:100870001A0180911201909113010E94A1028091AE
:100880000E0190910F010E94A102809106019091AA
:100890000701DF91CF911F910F91FF90EF90DF90B3
:1008A000CF90BF90AF909F908F900C94A102DF915A
:1008B000CF911F910F91FF90EF90DF90CF90BF905D
:1008C000AF909F908F9008958F929F92AF92BF921A
:1008D000CF92DF92EF92FF92809160028823D1F154
:1008E00085E992E00E94B30B4B015C0185E992E03F
:1008F0000E943F0B6B017C01C501B4010E947E1D6B
:1009000020E030E04AE754E40E94141D6093710235
:10091000709372028093730290937402C0926D027E
:10092000D0926E02E0926F02F092700280910A0102
:1009300090910B010E94A10280910C0190910D01F8
:10094000FF90EF90DF90CF90BF90AF909F908F90EF
:100950000C94A102FF90EF90DF90CF90BF90AF90EA
:100960009F908F900895EF92FF920F931F9326E030
:1009700040E051EE60E070E080ED95E00E94A91A41
:1009800010926C0210926B0261E087E00E9457198E
:1009900060E087E00E94901963E085E992E00E94A0
:1009A000D20A882321F081E08093600202C0109275
:1009B000600285E892E00E94E71762E070E080E064
:1009C00090E00E94B0186DE685E892E00E948416DF
:1009D00060E070E085E892E00E94931762E070E0CA
:1009E00085E892E00E9470179AEAE92E23EFF22E32
:1009F00008EF19EF21EF30E040E050E061E085E8DA
:100A000092E00E94001785E892E00E948B168AEE21
:100A100092E00E94B51064EF71E080E090E00E94E7
:100A2000B0188AEE92E00E947F1164EF71E080E0DE
:100A300090E00E94B0188AEE92E00E94FC11882398
:100A4000D1F3EE24E39408E710E021E532E0A901B8
:100A50006BE171E08CEC92E00E94E712811109C019
:100A600010926C0210926B021F910F91FF90EF9009
:100A7000089567E172E082ED92E00E9492126BE1CC
:100A800072E088ED92E00E9492126EE172E08EEDCB
:100A900092E00E9492126FE172E084EE92E00E9476
:100AA00092126DE472E08CEE92E00E9492124091FC
:100AB00016015091170160911801709119018AEE89
:100AC00092E01F910F91FF90EF900C943A10CF930A
:100AD000DF93CDB7DEB760970FB6F894DEBF0FBED9
:100AE000CDBF8AEE92E00E94A011809161029091A8
:100AF000620201969093620280936102883E934065
:100B0000A4F010926202109261028091640281113D
:100B10000CC040911601509117016091180170911D
:100B200019018AEE92E00E943A1080916B02909136
:100B30006C028230910571F03CF40097B9F0019796
:100B400009F049C061E013C083309105A1F004971A
:100B500029F141C08091690290916A0201969093B7
:100B60006A028093690285369105A4F060E087E00F
:100B70000E9490191FC08091690290916A020196AB
:100B800090936A0280936902813A91059CF48D33B7
:100B90009105C4F4C397FCF061E015C0809169022F
:100BA00090916A02019690936A0280936902833D54
:100BB00091052CF010926A02109269020CC08F36D7
:100BC00091052CF060E087E00E94901904C0853602
:100BD0009105ECF2E1CF85E892E00E94EF168823C0
:100BE00009F459C048E0BE016F5F7F4F85E892E08D
:100BF0000E94F316DE011196CE010D96AE014B5FF9
:100C00005F4F21E03D91FC013193CF01311120E094
:100C1000A417B507B9F721110CC08D859E85AF8546
:100C2000B8898093810290938202A0938302B0934B
:100C30008402FA01DE01199681E090E08C0F9D1F7D
:100C4000089621E031913D93311120E0E817F90732
:100C5000C9F7211114C069857A858B859C850E940E
:100C60007E1D20E030E04AE754E40E94141D6093AA
:100C70007D0270937E0280937F0290938002809128
:100C80001001909111010E94A102809108019091A0
:100C900009010E94A1028091650290916602A091D3
:100CA0006702B09168020196A11DB11D8136FAEE6E
:100CB0009F07A105B1054CF48093650290936602ED
:100CC000A0936702B09368020CC010926502109264
:100CD000660210926702109268020E94C8030E9486
:100CE00064046AE070E080E090E00E94B0186096D2
:100CF0000FB6F894DEBF0FBECDBFDF91CF91089540
:100D000045E050E060ED75E08AEE92E00E949810B8
:100D10006AEE72E08CEC92E00E94CB126AEE72E016
:100D200089EB92E00E943A1585E992E00E94120A4E
:100D30004AE069E085E892E00C94711680913605EE
:100D400090E020913705821B910908952091370585
:100D500080913605281750F4E22FF0E0E85CFA4F56
:100D6000808190E02F5F2093370508958FEF9FEFEC
:100D70000895E091370580913605E81730F4F0E0EA
:100D8000E85CFA4F808190E008958FEF9FEF08951F
:100D90000895CF92DF92EF92FF920F931F93CF931C
:100DA000DF937C01CB018A0120911205222389F077
:100DB000EB016B01C40ED51ECC15DD0569F0699100
:100DC000D701ED91FC910190F081E02DC7010995CB
:100DD000F3CF642F0E948608C801DF91CF911F9145
:100DE0000F91FF90EF90DF90CF900895CF93DF9316
:100DF0001F92CDB7DEB76983209112052223D1F06F
:100E000020911305203240F021E030E0FC013383D3
:100E1000228380E090E015C080911405E82FF0E077
:100E2000EB5EFA4F998190838F5F809314058093D6
:100E3000130505C061E0CE0101960E94860881E09D
:100E400090E00F90DF91CF910895FC011382128200
:100E500048EE53E060E070E0448355836683778317
:100E60008EE192E09183808308951092370510926D
:100E7000360510921405109213050C94C90781E0F1
:100E80008093120560933505109214051092130596
:100E900008950C943F070F93062F21E0409113050E
:100EA00065E175E0809135050E942F0810921405C8
:100EB00010921305109212050F9108958F929F9230
:100EC000AF92BF92CF92DF92EF92FF920F931F9358
:100ED000CF93DF93EC01F62ED42E48015901EE207A
:100EE00019F10E943F071E2D143008F013E0115035
:100EF000B8F0E881F98128E0129FB0011124A50122
:100F0000940104C056954795379527956A95D2F771
:100F1000CA01B9010190F081E02DCE010995E7CF1A
:100F200060E0CE010E944B074D2D413208F040E2B7
:100F30002C2D68E375E08F2D0E94E707109237058E
:100F400080933605DF91CF911F910F91FF90EF9025
:100F5000DF90CF90BF90AF909F908F900895CF92E9
:100F6000EF920F931F93C22EE12C00E010E0980146
:100F70000E945E071F910F91EF90CF90089521E09E
:100F80000C94AF0761E00C944B0786E095E00C945D
:100F900025071092C50581E08093C3051092C20514
:100FA00061E082E10E94901961E083E10E94901962
:100FB000E9EBF0E080818E7F808380818D7F80836C
:100FC00080E28093B80085E48093BC0008954132AC
:100FD00008F043C09091C5059111FCCF91E090932A
:100FE000C5052093C3052FEF2093580510929D054A
:100FF000240F20939C059093C4059091C405880FFD
:10100000892B8093C4058091C205813061F41092D0
:10101000C2058091C4058093BB008091BC0083FD14
:10102000F8CF85EC01C085EE8093BC008091C505AA
:101030008130E1F380919D05841710F440919D0566
:101040002EE935E0FB01D9018A2F821B841718F4A1
:101050008D918193F9CF842F089580E008950F93A7
:10106000413208F04AC09091C5059111FCCF92E041
:101070009093C5050093C3059FEF90935805109278
:101080009D0540939C05FB016EE975E0DB019A2FFD
:10109000961B941718F491919D93F9CF1092C40563
:1010A0009091C405880F892B8093C4058091C20557
:1010B000813061F41092C2058091C4058093BB0019
:1010C0008091BC0083FDF8CF85EC01C085EE809354
:1010D000BC00222321F08091C5058230E1F380918C
:1010E00058058F3F61F080915805803251F0809112
:1010F0005805803341F483E007C081E005C080E0FB
:1011000003C082E001C084E00F910895613298F439
:101110002091C505243089F460937A05FC018CE7A1
:1011200095E0DC012A2F281B261718F421912D9316
:10113000F9CF80E0089581E0089582E0089585ED7B
:101140008093BC008091BC0084FDFCCF1092C5054B
:10115000089585EC8093BC001092C50508951F92F8
:101160000F920FB60F9211242F933F934F935F93DB
:101170006F937F938F939F93AF93BF93EF93FF935F
:101180008091B900887F803609F49EC078F5883256
:1011900009F45DC090F4803109F456C038F4882316
:1011A00009F4F5C0883009F44FC0F5C0883109F45E
:1011B0004EC0803209F45FC0EEC0803409F46AC0CA
:1011C00058F4803309F457C0883309F0E4C08093A1
:1011D00058050E94A908DFC0803509F44FC0883542
:1011E00009F45DC0883409F0D6C0D3C0883909F449
:1011F000C4C0A8F4883709F467C038F4883609F405
:1012000063C0803709F460C0C6C0883809F4B5C02F
:10121000803909F45FC0803809F0BDC05BC0803BF5
:1012200009F483C038F4803A09F466C0883A09F4B6
:101230007CC0B1C0803C09F4A4C0883C09F4A1C0C2
:10124000883B09F487C0A7C08091C40510C0909165
:101250009D0580919C05981770F5E0919D0581E0B2
:101260008E0F80939D05F0E0E256FA4F80818093C7
:10127000BB0085EC83C0809358058BC0E0919D0531
:1012800081E08E0F80939D058091BB00F0E0E256D7
:10129000FA4F808390919D0580919C056BC0E091F1
:1012A0009D0581E08E0F80939D058091BB00F0E04D
:1012B000E256FA4F80838091C30581116AC081E0B4
:1012C0008093C20584EA5EC083E08093C5051092D6
:1012D0005905CFCF80915905803208F04EC0E0917A
:1012E000590581E08E0F809359058091BB00F0E095
:1012F000E65AFA4F8083BDCF0E94A9088091590514
:10130000803230F4E0915905F0E0E65AFA4F10824D
:101310006091590570E0E091BE05F091BF058AE546
:1013200095E009951092590536C084E08093C50573
:1013300010927B0510927A05E091C005F091C105ED
:10134000099580917A05811105C081E080937A0525
:1013500010927C05E0917B0581E08E0F80937B05E8
:10136000F0E0E458FA4F80818093BB0090917B05B8
:1013700080917A05981708F47CCF85E88093BC00AB
:101380000AC085EC8093BC001092C50504C0109281
:1013900058050E949F08FF91EF91BF91AF919F91D7
:1013A0008F917F916F915F914F913F912F910F900E
:1013B0000FBE0F901F901895CF93CFB7F8948091E0
:1013C000C605811127C0E2EBF2E08491EEE9F2E07C
:1013D0009491E82FF0E0EE0FFF1FE053FD4FA59131
:1013E000B4918C91892321F461E08AE00E949019E4
:1013F00061E08AE00E9457198CB580618CBD8CB584
:1014000080648CBD61E08DE00E94571961E08BE043
:101410000E9457198091C6058F5F8093C605CFBF84
:10142000CF9108950895CF92DF92EF92FF92FC0141
:1014300085899689481B590B61097109A389B4896B
:101440009A01AB010E94E61E6B017C018FE0F594CE
:10145000E794D794C7948A95D1F7658576858827D0
:1014600077FD8095982F2BE0660F771F881F991FB7
:101470002A95D1F727853089442737FD4095542F89
:101480002C0D3D1D4E1D5F1D0E94C71E2C0D3D1DC8
:101490004E1D5F1DCA01B901FF90EF90DF90CF9004
:1014A00008951F93CF93DF931F92CDB7DEB7162F0A
:1014B00067E770E086E095E049830E944907612F65
:1014C00086E095E00E94F6064981642F86E095E06B
:1014D0000E94F60686E095E00F90DF91CF911F9174
:1014E0000C94C207CF93C62F67E770E086E095E0C3
:1014F0000E9449076C2F86E095E00E94F60686E080
:1015000095E00E94C20767E770E086E095E00E94E0
:10151000490741E050E067E770E086E095E00E940F
:10152000BF0786E095E00E94A606C82F86E095E0FA
:101530000E94C2078C2FCF910895CF93DF93C62FBF
:1015400067E770E086E095E00E9449076C2F86E02F
:1015500095E00E94F60686E095E00E94C20767E7E4
:1015600070E086E095E00E94490742E050E067E7BE
:1015700070E086E095E00E94BF0786E095E00E945B
:10158000A606D82F80E0C82F86E095E00E94A60628
:10159000C82BD92B86E095E00E94C207CE01DF91CF
:1015A000CF910895CF93DF93EC01643008F063E0AE
:1015B000688386E095E00E94350760EDCE010E94C9
:1015C000720A853509F044C06AEACE010E949D0A7C
:1015D0009A8389836CEACE010E949D0A9C838B8347
:1015E0006EEACE010E949D0A9E838D8360EBCE0140
:1015F0000E949D0A9A8B898B62EBCE010E949D0A04
:101600009C8B8B8B64EBCE010E949D0A9E8B8D8BF5
:1016100066EBCE010E949D0A98878F8368EBCE010E
:101620000E949D0A9A8789876AEBCE010E949D0AD3
:101630009C878B876CEBCE010E949D0A9E878D87CD
:101640006EEBCE010E949D0A988B8F8781E001C0CE
:1016500080E0DF91CF910895CF93DF93EC014EE2CC
:1016600064EF0E94510A65E070E080E090E00E9423
:10167000B01866EFCE01DF91CF910C949D0ACF9305
:10168000DF93EC010E942C0BAC0160E070E0CE0116
:101690000E94130A685F7F4F8F4F9F4F34E09595EC
:1016A0008795779567953A95D1F70E947E1D20E042
:1016B00030E040E251E40E94141DDF91CF91089583
:1016C000CF92DF92EF92FF92CF93DF93EC014881AC
:1016D0004295440F440F407C4C5C64EF0E94510AD9
:1016E0008881811105C065E070E080E090E012C063
:1016F000813029F468E070E080E090E00BC0823037
:1017000029F46EE070E080E090E004C06AE170E0EF
:1017100080E090E00E94B01866EFCE010E949D0A22
:101720006C01E12CF12CFE2CED2CDC2CCC2468EF90
:10173000CE010E94720AA7019601282BCA01B901A5
:10174000488128E030E0241B310904C09695879534
:10175000779567952A95D2F7DF91CF91FF90EF901B
:10176000DF90CF9008952F923F924F925F926F92A9
:101770007F928F929F92AF92BF92CF92DF92EF9221
:10178000FF920F931F93CF93DF93CDB7DEB72A97C6
:101790000FB6F894DEBF0FBECDBF9A8789870E942F
:1017A0002C0B8C0189859A850E94600B6D837E834A
:1017B0008F839887A80160E070E089859A850E94F0
:1017C000130A4B015C0180EA881A8FE0980AA1088D
:1017D000B108A5019401C501B4010E94951E2B0119
:1017E0003C010CE075946794579447940A95D1F79F
:1017F000A985BA8511962D903C9012971C9115964B
:101800000D90BC91A02D0E94F11E6B017C018DE01A
:10181000F594E794D794C7948A95D1F7E985FA852A
:10182000A781B085A30192010E94F11EBB2797FDFD
:10183000B095AB2FC80ED91EEA1EFB1EF2E0CF0EEC
:10184000D11CE11CF11C32E0F594E794D794C794C5
:101850003A95D1F780E8D80EE11CF11CE985FA85AC
:10186000A189B289A70196010E94E61EDC01CB0185
:101870004FE0B695A795979587954A95D1F78983B7
:101880009A83AB83BC836101EE24D7FCE094FE2CE9
:1018900052E0CC0CDD1CEE1CFF1C5A95D1F7A18543
:1018A000B285A30192010E94F11E2B013C016BE065
:1018B00075946794579447946A95D1F7A381B4813E
:1018C000A50194010E94F11EEBE09595879577950F
:1018D0006795EA95D1F7460E571E681E791EC40C0F
:1018E000D51CE61CF71C012E04C0CC0CDD1CEE1C24
:1018F000FF1C0A94D2F792E0C90ED11CE11CF11C26
:10190000C701B60124E030E040E050E00E94C71E6D
:101910008D819E81AF81B885821B930BA40BB50B83
:101920009C01AD0160E573EC80E090E004C0969509
:101930008795779567951A95D2F70E94951E97FD22
:101940000DC0660F771F881F991F29813A814B812F
:101950005C810E94A51E49015A010CC029813A816F
:101960004B815C810E94A51E49015A01880C991C7B
:10197000AA1CBB1C9927B7FC9A958B2D7A2D692D33
:101980009B01AC010E94951E9B01AC01AEEDBBE03A
:101990000E94E61E6C01FF24D7FCF094EF2CA3E418
:1019A000B3EEA50194010E94F41EBB2797FDB095EC
:1019B000AB2FC80ED91EEA1EFB1E9FECC90E9EE07F
:1019C000D91EE11CF11CA4E0F594E794D794C794C8
:1019D000AA95D1F7C80CD91CEA1CFB1CC701B6019B
:1019E0002A960FB6F894DEBF0FBECDBFDF91CF9120
:1019F0001F910F91FF90EF90DF90CF90BF90AF902D
:101A00009F908F907F906F905F904F903F902F901E
:101A100008954F925F926F927F928F929F92AF92B2
:101A2000BF92CF92DF92EF92FF920F931F93CF93CB
:101A3000DF9300D0CDB7DEB77C01D62E70E0FB017E
:101A4000EC56FD4FC490FB01E855FD4FE491F0E0EA
:101A5000EE0FFF1FE454FD4F4590549061E08D2D33
:101A60002A8349830E94571960E08D2D0E949019A6
:101A700088EE93E04981BC01469FC001479F900DCD
:101A800011240E94EA1861E08D2D0E94901960E0F7
:101A90008D2D0E94571980E991E02A81F201308151
:101AA0003C2121F00197D1F78DEF66C088EC90E0E2
:101AB000F20130813C2121F40197D1F78CEF5CC019
:101AC00088EC90E0F20130813C2121F00197D1F7C0
:101AD0008BEF52C0F8E2BF2EA8ECB0E040E050E03F
:101AE00088EC90E060E0912C812C10E8612E7B2C3A
:101AF000721A08EC10E020E030E0F201A080AC2087
:101B000051F5662341F17B1490F4A817B90708F446
:101B1000CD01B901A801481B590B61097109E2E027
:101B20007595679557954795EA95D1F707C0BC011C
:101B3000641B750B6A177B0708F09628669441F4BE
:101B4000F701E80DF11D90868394912C60E8662ED4
:101B5000BA94A8ECB0E0119771F0BB2011F06A2D97
:101B6000CCCF61E08D2D0E94571961E08D2D0E9430
:101B7000901980E001C08EEF0F900F90DF91CF9110
:101B80001F910F91FF90EF90DF90CF90BF90AF909B
:101B90009F908F907F906F905F904F900895CF921D
:101BA000DF92EF92FF920F931F93CF93DF93EC019D
:101BB00026E041E00E94090DE82E18851370188771
:101BC000CA840C2D03780A87F984612F70E0762F80
:101BD00066276F0D711D882777FD8095982F0E94CD
:101BE0007E1D2DEC3CEC4CEC5DE30E94321E6883C4
:101BF00079838A839B83DB846C2D637070E0762FFE
:101C000066276D0D711D882777FD8095982F0E949E
:101C10007E1D2DEC3CEC4CEC5DE30E94321E07FD7A
:101C200005C06C837D838E839F8307C0DC01CB015D
:101C3000B0588C839D83AE83BF83FD0CF10EF00EF4
:101C40008C858F1511F08FEF01C08E2DDF91CF9114
:101C50001F910F91FF90EF90DF90CF90089568272C
:101C60007627672776279B01222784E0220F331FE0
:101C70008A95E1F726273727C901892F9927829569
:101C80008F70822793279C01222755E03695279550
:101C90005A95E1F7822793270895EF92FF920F93C9
:101CA0001F93CF93DF938C017B01CA01E8019E0152
:101CB000201B310B2E153F052CF4BC0189910E948D
:101CC0002F0EF5CFDF91CF911F910F91FF90EF90E5
:101CD0000895FC0175836483645F7F4F738362831F
:101CE000118210820895DC011496ED91FC911597F4
:101CF000828593850895CF93DF93FC01EB01BA01B0
:101D0000A481B581208131811A968D919C911B9778
:101D10002817390748F5A281B3812D913D91B383EE
:101D2000A283DE0180E090E08217930799F0C281E0
:101D3000D381AE014F5F5F4F5383428348814D9300
:101D400001966817790780F78081918101969183C8
:101D5000808307C0208131812F5F3F4F31832083F3
:101D6000BC0180E090E003C06FEF7FEFCB01DF911B
:101D7000CF910895EF92FF920F931F93CF93DF932C
:101D80008C01EB0161E572E00E948A1CEA81FB8113
:101D9000E190F190FB83EA83E114F10471F0EA81B0
:101DA000FB81CF0101969B838A836081C8010E94D9
:101DB000CC1C81E0E81AF108EFCF88819981019667
:101DC00099838883C801DF91CF911F910F91FF9074
:101DD000EF9008951F93CF93DF93EC01162F83E8C4
:101DE000860FAF85B889ED91FC9111970190F08134
:101DF000E02D833070F46DE7CD0109958F859889CA
:101E0000DC01ED91FC9160E261270190F081E02D11
:101E100001C0CD01DF91CF911F910994EF92FF9204
:101E20000F931F93CF93DF937C018A01EB01060F81
:101E3000171FC017D10729F06991C7010E94EA0E48
:101E4000F8CFDF91CF911F910F91FF90EF90089500
:101E5000AF92BF92CF92DF92EF92FF920F931F93B8
:101E6000CF93DF93CDB7DEB72C970FB6F894DEBFD4
:101E70000FBECDBF5C017A8369832B833C834D8386
:101E80005E83EF82F88609871A87DC86CB86DC01C1
:101E90001F968D919C915097DC01ED91FC910190E2
:101EA000F081E02D6EE7099542E050E0BE016F5FE2
:101EB0007F4FC5010E940E0F40E050E062E070E0ED
:101EC000CE0101960E944D0E8C0144E050E0BE010F
:101ED0006D5F7F4FC5010E940E0FA80164E070E0A6
:101EE000CE0103960E944D0E8C0144E050E0BE01ED
:101EF000695F7F4FC5010E940E0FA80164E070E08A
:101F0000CE0107960E944D0E8C0142E050E0BE01CA
:101F1000655F7F4FC5010E940E0FA80162E070E06F
:101F2000CE010B960E944D0E2C960FB6F894DEBF94
:101F30000FBECDBFDF91CF911F910F91FF90EF901A
:101F4000DF90CF90BF90AF900895AF92BF92CF92A5
:101F5000DF92EF92FF920F931F93CF93DF9300D006
:101F60001F92CDB7DEB76C017B018A0159011B823C
:101F7000F9019F012F5F3F4FCF0183709927892B74
:101F800011F0F901F6CFFA83E98342E050E0BE0197
:101F90006F5F7F4FC6010E940E0FA70162E070E0E5
:101FA000CE0101960E944D0E7C01A00EB11E0A15B5
:101FB0001B05B1F0F8016081C6010E94EA0EA7017D
:101FC00061E070E0C8010E944D0E7C010F5F1F4F61
:101FD00089819A81009759F301979A838983E7CF82
:101FE00089819A819C01215031093A832983892B67
:101FF00069F06B81C6010E94EA0EA70161E070E002
:10200000CE0103960E944D0E7C01EACFC7010F90CE
:102010000F900F90DF91CF911F910F91FF90EF9054
:10202000DF90CF90BF90AF9008950F931F93CF9301
:10203000DF9300D0CDB7DEB78C017A83698342E0AD
:1020400050E0BE016F5F7F4F0E940E0FD8011F96B8
:102050008D919C915097DC01ED91FC910190F08164
:10206000E02D6FE709950F900F90DF91CF911F91B1
:102070000F9108958F929F92AF92BF92CF92DF926D
:10208000EF92FF920F931F93CF93DF93EC014B01DD
:102090005A019C012E5F3F4F442737FD4095542F36
:1020A00082E0C82ED12CE12CF12C870163E070E096
:1020B000CE010E94280FF40101900020E9F79F0152
:1020C0002150310928193909A401BC01CE010E940F
:1020D000A50FF50101900020E9F79F01215031097A
:1020E0002A193B09A501BC01CE010E94A50FBC0124
:1020F000CE01DF91CF911F910F91FF90EF90DF9074
:10210000CF90BF90AF909F908F900C941510FC01D2
:102110004A96938B828B80E092E0958B848B178A12
:10212000168A108EE65EFD4F61E080810C9457198F
:10213000EF92FF920F931F93CF93DF93EC017B01FC
:102140008A0102960E948C12F88AEF86FE01E65EF2
:10215000FD4F11830083198ACE01DF91CF911F912A
:102160000F91FF90EF900C948710865E9D4F61E079
:10217000FC0180810C949019FC012189222321F01B
:10218000808191810C940A1C08954F925F926F9206
:102190007F928F929F92AF92BF92CF92DF92EF92F7
:1021A000FF920F931F93CF93DF9300D000D000D006
:1021B000CDB7DEB77C01FC0102891389F801828466
:1021C00093846801FCE0CF0ED11C40E050E06CE04D
:1021D00070E0C8010E944D0E5401F601A114B10433
:1021E00031F180809180AC0162E070E0C6010E9414
:1021F0004D0E2601F2E04F0E511C3601680C791C81
:1022000096012E5F3F4FC614D70451F0AC0161E038
:1022100070E0C9010E944D0E2FEFC21AD20AF0CF12
:102220006201C80CD91CE1E0AE1AB108D6CF2081FA
:1022300031818217930789F06AE272E0CE0101963C
:102240000E948A1CBE016F5F7F4FC7010E94BC10B5
:10225000CE0101960E941C1C3BC0F8018280938035
:10226000A480B58081149104A104B104C9F08081D7
:102270009181F70195878487F80186819781A085F0
:10228000B185F70180879187A287B387C4010E9437
:10229000BD128823E9F0B801C4010E94961218C04B
:1022A000F80182859385892B99F481E0F70186876F
:1022B000F80180819181F70195878487F8018681F3
:1022C0009781A085B185F70180879187A287B38721
:1022D00026960FB6F894DEBF0FBECDBFDF91CF912B
:1022E0001F910F91FF90EF90DF90CF90BF90AF9034
:1022F0009F908F907F906F905F904F900895CF92B6
:10230000DF92EF92FF920F931F93CF93DF93EC0135
:10231000C12CD12CE12CF12C870120E030E0A90167
:1023200061E070E00E94280FBC01CE01DF91CF91E7
:102330001F910F91FF90EF90DF90CF900C941510AC
:102340000F931F93CF93DF93EC0111E000E28F8591
:102350009889DC01ED91FC910480F581E02D0995CF
:10236000892B09F444C08F859889DC01ED91FC919B
:102370000680F781E02D09958E3729F04CF48D37D2
:1023800061F4188FE4CF1F8A1E8A188E198FDFCF51
:10239000CE010E94C510198EDACF998D91110FC010
:1023A00099899923A1F2A881B981ED91FC911197A6
:1023B0000190F081E02D682FCD010995C8CF988D4F
:1023C000992311F08027188E2E893F894C895D89C9
:1023D0002417350708F0BBCFEA89FB89A9014F5FB5
:1023E0005F4F5F8B4E8BE20FF31F8083B0CFDF9187
:1023F000CF911F910F910895BF92CF92DF92EF92EC
:10240000FF920F931F93CF93DF93EC0125E0B22E41
:102410001E86188619861A861B86C12CD12CE12CA3
:10242000F12C8701E39420E030E0A90162E070E044
:10243000CE010E94280FBC01CE010E9415100E94FF
:1024400081186B017C018E8581110BC00E9481185F
:102450006C197D098E099F09683E734081059105BD
:1024600088F08E85882341F088859985AA85BB856B
:10247000892B8A2B8B2B21F4BA9451F680E006C06D
:1024800081E004C0CE010E94A011DDCFDF91CF9189
:102490001F910F91FF90EF90DF90CF90BF90089524
:1024A0008F929F92AF92BF92CF92DF92EF92FF9264
:1024B000CF93DF93EC014A015B011E8618861986D3
:1024C0001A861B861D861C860E9481186B017C0162
:1024D0008E85882361F08E85DF91CF91FF90EF90FC
:1024E000DF90CF90BF90AF909F908F9008950E9403
:1024F00081186C197D098E099F09681579058A056F
:102500009B0548F7CE010E94A011E2CF40ED57E0B5
:1025100060E070E00C945012FC0111821082138272
:1025200012820895FC01738362830895DC01129680
:10253000ED91FC9113973097F9F02D913C91119703
:1025400021153105B9F014968D919C911597AC0128
:102550005595479580FF0AC0D901A40FB51F0D906E
:10256000BC91A02DAE0FBF1FED91FC91C901840F4E
:10257000951F0994CB0109940895FC0180819181F4
:10258000892B39F481E022813381232B19F480E0F7
:10259000089581E008950F931F93CF93DF93EC018B
:1025A0008B0106960E948C12CE010C960E948C1212
:1025B000CE0142960E948C12CE0148960E948C1247
:1025C0001D830C83DF91CF911F910F9108954F923E
:1025D0005F926F927F928F929F92AF92BF92CF92B3
:1025E000DF92EF92FF920F931F93CF93DF93CDB7BC
:1025F000DEB727970FB6F894DEBF0FBECDBF5C01E4
:102600003B014A0129011E830D83EF8289E0C82E18
:10261000D12CE12CF12C8701E39420E030E0A901DA
:1026200064E070E0D50114968D919C9115970E94FD
:10263000280FF30101900020E9F79F012150310993
:1026400026193709A301BC01D50114968D919C91DF
:1026500015970E94A50FF40101900020E9F79F0152
:102660002150310928193909A401BC01D50114965A
:102670008D919C9115970E94A50FF2010190002069
:10268000E9F79F012150310924193509A201BC0144
:10269000D50114968D919C9115970E94A50F22E06B
:1026A00030E0AE014B5F5F4FBC01F5018481958145
:1026B0000E94A50F21E030E0AE01495F5F4FBC01F1
:1026C000D50114968D919C9115970E94A50FA50197
:1026D0004A5F5F4F662757FD6095762F49835A837F
:1026E0006B837C8324E030E0AE014F5F5F4FBC0121
:1026F000F501848195810E94A50FA501445F5F4F7C
:10270000662757FD6095762F49835A836B837C83B8
:1027100024E030E0AE014F5F5F4FBC01D50114965D
:102720008D919C9115970E94A50FA5014E5E5F4F5C
:10273000662757FD6095762F49835A836B837C8388
:1027400024E030E0AE014F5F5F4FBC01F5018481B2
:1027500095810E94A50FA501485E5F4F662757FD32
:102760006095762F49835A836B837C8324E030E025
:10277000AE014F5F5F4FBC01D50114968D919C91C6
:1027800015970E94A50FBC01F501848195810E94D7
:102790001510D50114968D919C9115970E94861263
:1027A000882389F0D5011496ED91FC9115978485C5
:1027B0009585892B41F080859185A285B385009709
:1027C000A105B10511F480E006C0F5018083918375
:1027D000A283B38381E027960FB6F894DEBF0FBEC5
:1027E000CDBFDF91CF911F910F91FF90EF90DF90C0
:1027F000CF90BF90AF909F908F907F906F905F90A1
:102800004F9008958F929F92AF92BF92CF92DF9296
:10281000EF92FF920F931F93CF93DF9300D000D0DE
:102820001F92CDB7DEB75C014B0129833A834B83FE
:102830005C830D8344E0C42ED12CE12CF12C870164
:1028400020E030E0A90165E070E0FC018481958121
:102850000E94280F24E030E0A501BC01F50184812D
:1028600095810E94A50FF40101900020E9F79F01D6
:102870002150310928193909A401BC01F5018481CD
:1028800095810E94A50F24E030E0AE014F5F5F4FBD
:10289000BC01F501848195810E94A50F21E030E003
:1028A000AE014B5F5F4FBC01F501848195810E94B1
:1028B000A50FBC01F501848195810E9415100F9030
:1028C0000F900F900F900F90DF91CF911F910F916C
:1028D000FF90EF90DF90CF90BF90AF909F908F9040
:1028E00008950F9300E00E9402140F910895CF9273
:1028F000DF92EF92FF920F931F93CF93DF93EC0140
:10290000CC24C394D12CE12CF12C870120E030E0C1
:10291000A90166E070E08C819D810E94280F24E06F
:1029200030E0AE01BC018C819D810E94A50FBC01ED
:102930008C819D81DF91CF911F910F91FF90EF903E
:10294000DF90CF900C9415106F927F928F929F9290
:10295000AF92BF92CF92DF92EF92FF920F931F93AD
:10296000CF93DF9300D000D0CDB7DEB75C014B0131
:102970003A013A8329830B83EC8276E0C72ED12C6F
:10298000E12CF12C870120E030E0A90167E070E044
:10299000FC01848195810E94280F24E030E0A5018C
:1029A000BC01F501848195810E94A50FF40101907D
:1029B0000020E9F79F012150310928193909A401A4
:1029C000BC01F501848195810E94A50F29813A817E
:1029D000A301BC01F501848195810E94A50F22E02D
:1029E00030E0AE014F5F5F4FBC01F50184819581FE
:1029F0000E94A50F21E030E0AE014D5F5F4FBC01AA
:102A0000F501848195810E94A50F21E030E0AE019F
:102A10004C5F5F4FBC01F501848195810E94A50F39
:102A2000BC01F501848195810E9415100F900F90D3
:102A30000F900F90DF91CF911F910F91FF90EF902A
:102A4000DF90CF90BF90AF909F908F907F906F90CE
:102A50000895EF920F93FA0101900020E9F7319762
:102A6000E41BF50BE02E022F9F010E94A4140F918E
:102A7000EF9008950F931F93CF93DF93EC018B0199
:102A80000A960E948C1219870887188219821A8266
:102A90001B8248E853E160E070E04C835D836E8305
:102AA0007F83DF91CF911F910F9108958EBD00001C
:102AB0000DB407FEFDCF8EB508952CB52F7D2CBD2E
:102AC0002CB5237F2CBD2CB52C7F2CBD2DB52E7F96
:102AD0002DBDFC0181810C949019FC0180810C9426
:102AE00090191F93CF93DF93EC01162F60E070E0F5
:102AF0000E945D15812F8F710E9456158FEF0E94E5
:102B00005615182F61E070E0CE010E945D15812FEF
:102B1000DF91CF911F910895CF92DF92EF92FF92B4
:102B20000F931F93CF93DF9300D0CDB7DEB78C0107
:102B3000E62EF22E60E070E049835A830E945D1514
:102B40008E2D8F7180620E945615E82E4981C42E09
:102B50005A81D52EF40EFC1431F0F60181916F01EB
:102B60000E945615F8CF61E070E0C8010E945D1523
:102B70008E2D0F900F90DF91CF911F910F91FF90AD
:102B8000EF90DF90CF900895EF92FF921F93CF9335
:102B9000DF931F92CDB7DEB77C01162F60E070E0A7
:102BA00049830E945D15812F8F7180620E945615A6
:102BB000182F4981842F0E94561561E070E0C701EB
:102BC0000E945D15812F0F90DF91CF911F91FF9093
:102BD000EF900895BF92CF92DF92EF92FF920F9302
:102BE0001F93CF93DF938C01D62EB72EFC01C481A7
:102BF000F42EC41708F4FC2EF8018681811103C05D
:102C0000EC2EEF1801C0E12C60E070E0C8010E94DA
:102C10005D1581E60E945615C82ECD2DDB2DFD0CCD
:102C2000FC1629F08FEF0E9456158993F9CFCE2D0F
:102C3000CC2329F08FEF0E945615C150F9CF61E0E7
:102C400070E0C8010E945D158C2DDF91CF911F911E
:102C50000F91FF90EF90DF90CF90BF9008951F935A
:102C6000CF93DF93EC0160E070E00E945D1582EE8F
:102C70000E945615182F61E070E0CE010E945D158C
:102C8000812FDF91CF911F9108951F93CF93DF93F1
:102C9000EC0160E070E00E945D1581EE0E94561527
:102CA000182F61E070E0CE010E945D15812FDF9149
:102CB000CF911F9108951F93CF93DF93EC0160E0B4
:102CC00070E00E945D158FEF0E945615182F61E08D
:102CD00070E0CE010E945D15812FDF91CF911F9191
:102CE0000895FC016083418381E08283138280E246
:102CF00084831582168210861186128613861486A6
:102D00001586168617860895462F603808F04FE717
:102D100065E00C94C415CF93DF93EC0160E00E9452
:102D20007115482F436060E0CE010E94C41540E752
:102D300067E0CE010E94C415288539854A855B85E8
:102D40006C857D858E859F85A0E00E94F91E41F0EF
:102D500025E0AE01485F5F4F6AE0CE010E948C150E
:102D6000CE010E942F16CE010E94451661E070E050
:102D7000CE010E946D1582E890E0DF91CF910C9416
:102D8000EA18EF92FF920F931F93CF93DF93EC011A
:102D90008B010E945B16F82E86FBEE24E0F886FF7E
:102DA00016C00115110539F0282F30E0359527950B
:102DB0002770F801208340E467E0CE010E94C4152B
:102DC000F5FE05C040E267E0CE010E94C4158E2DDD
:102DD000DF91CF911F910F91FF90EF90089560E0E8
:102DE00070E00C94C116CF93DF93EC010E94EA15BA
:102DF00067E1CE010E9471158170DF91CF91089536
:102E0000BF92CF92DF92EF92FF920F931F93CF93D7
:102E1000DF93CDB7DEB728970FB6F894DEBF0FBEAD
:102E2000CDBF6C01B62EE982FA820B831C832D8301
:102E30003E834F83588761110AC0F601E086F18610
:102E400002871387248735874687578707C0F6E0B0
:102E5000F61708F435C081E0681307C0EB2DF0E0E9
:102E6000EA5FFD4F649125E006C0E62FF0E0EA5FDF
:102E7000FD4F649121E0AE014F5F5F4FC6010E949C
:102E80008C150B2D10E0F801E050FE4F6491F60117
:102E90004481C6010E94C41562E0C6010E947115FA
:102EA000F801E650FE4F049121E030E001C0220F0E
:102EB0000A95EAF7822B482F62E0C6010E94C415EA
:102EC00028960FB6F894DEBF0FBECDBFDF91CF912D
:102ED0001F910F91FF90EF90DF90CF90BF900895DA
:102EE0000F931F93CF93DF938C01EB0166E00E9459
:102EF0007115482F497FC330D10561F0C230D1052B
:102F000011F4446008C0C130D10511F4426003C01F
:102F1000249709F4466066E0C801DF91CF911F91C4
:102F20000F910C94C415EF92FF920F931F93CF93C0
:102F3000DF931F92CDB7DEB77C018B0166E00E9464
:102F40007115F7011282282F277D0230110511F427
:102F5000206207C00130110521F481E0F70182836E
:102F60002860422F66E0C70129830E94C41566E0ED
:102F7000C7010E9471152981821721F0F701128281
:102F800080E001C081E00F90DF91CF911F910F9100
:102F9000FF90EF9008950F931F93CF93DF93EC0171
:102FA0008B0160E00E947115482F437F01151105C8
:102FB00031F00130110511F4486001C04C6060E04F
:102FC000CE01DF91CF911F910F910C94C415CF9337
:102FD000DF93EC0161E088810E94571961E08981EB
:102FE0000E9457190E94DC0960E070E0CE010E9447
:102FF0006D1561E070E0CE010E945D1565E070E046
:1030000080E090E00E94B0184FE464E0CE010E949E
:10301000C41563E070E0CE010E94701762E070E0BA
:10302000CE010E949317882311F081E08B8360E02A
:1030300070E0CE010E94931762E070E0CE010E9422
:10304000CB1740E06CE1CE010E94C41540E767E079
:10305000CE010E94C4156CE4CE010E948416CE01FC
:103060000E942F16CE01DF91CF910C9445161F922E
:103070000F920FB60F9211242F933F938F939F932C
:10308000AF93BF938091C8059091C905A091CA05DF
:10309000B091CB053091C70526E0230F2D3720F4E2
:1030A0000296A11DB11D05C029E8230F0396A11D9D
:1030B000B11D2093C7058093C8059093C905A093BF
:1030C000CA05B093CB058091CC059091CD05A09118
:1030D000CE05B091CF050196A11DB11D8093CC0501
:1030E0009093CD05A093CE05B093CF05BF91AF913E
:1030F0009F918F913F912F910F900FBE0F901F9036
:1031000018952FB7F8946091C8057091C905809102
:10311000CA059091CB052FBF08953FB7F8948091D1
:10312000CC059091CD05A091CE05B091CF0526B5E7
:10313000A89B05C02F3F19F00196A11DB11D3FBFEF
:103140006627782F892F9A2F620F711D811D911D7F
:1031500043E0660F771F881F991F4A95D1F708959E
:103160008F929F92AF92BF92CF92DF92EF92FF9297
:103170006B017C010E948D184B015C01C114D104CC
:10318000E104F104F1F00E940F1D0E948D186819EE
:1031900079098A099B09683E73408105910570F39E
:1031A00021E0C21AD108E108F10888EE880E83E018
:1031B000981EA11CB11CC114D104E104F10429F72B
:1031C000DDCFFF90EF90DF90CF90BF90AF909F90BA
:1031D0008F9008958330910528F0880F991F0497E8
:1031E0000197F1F70895789484B5826084BD84B521
:1031F000816084BD85B5826085BD85B5816085BDF2
:10320000EEE6F0E0808181608083E1E8F0E010820A
:10321000808182608083808181608083E0E8F0E04B
:10322000808181608083E1EBF0E080818460808335
:10323000E0EBF0E0808181608083EAE7F0E080816C
:103240008460808380818260808380818E7F8083A0
:103250008081806880831092C1000895833081F05E
:1032600028F4813099F08230A1F008958730A9F0D8
:103270008830B9F08430D1F4809180008F7D03C014
:10328000809180008F7780938000089584B58F7738
:1032900002C084B58F7D84BD08958091B0008F7782
:1032A00003C08091B0008F7D8093B0000895CF93CC
:1032B000DF9390E0FC01EC56FD4F2491FC01E855B2
:1032C000FD4F8491882349F190E0880F991FFC01FC
:1032D000E053FD4FA591B4918A539D4FFC01C591D8
:1032E000D4919FB7611108C0F8948C9120958223E6
:1032F0008C93888182230AC0623051F4F8948C91B7
:10330000322F309583238C938881822B888304C04D
:10331000F8948C91822B8C939FBFDF91CF9108956D
:103320000F931F93CF93DF931F92CDB7DEB7282F54
:1033300030E0F901E058FD4F8491F901EC56FD4F62
:103340001491F901E855FD4F04910023C9F0882339
:1033500021F069830E942E196981E02FF0E0EE0FC1
:10336000FF1FEA53FD4FA591B4919FB7F8948C913C
:10337000611103C01095812301C0812B8C939FBFE5
:103380000F90DF91CF911F910F910895FC01818DD6
:10339000228D90E0805C9F4F821B91098F7399274B
:1033A0000895FC01918D828D981731F0828DE80F80
:1033B000F11D858D90E008958FEF9FEF0895FC013A
:1033C000918D828D981761F0828DDF01A80FB11D5C
:1033D0005D968C91928D9F5F9F73928F90E0089580
:1033E0008FEF9FEF08958DE59BE1892B49F080E0F9
:1033F00090E0892B29F00E945D1B81110C94000044
:103400000895FC01848DDF01A80FB11DA35ABF4FA1
:103410002C91848D90E001968F739927848FA689D3
:10342000B7892C93A089B1898C9180648C93938DFA
:10343000848D981306C00288F389E02D80818F7DEA
:1034400080830895CF93DF93EC01888D8823C9F0A2
:10345000EA89FB89808185FD05C0A889B9898C919D
:1034600086FD0FC00FB607FCF5CF808185FFF2CF38
:10347000A889B9898C9185FFEDCFCE010E94011AF0
:10348000E7CFDF91CF910895CF92DF92FF920F9314
:103490001F93CF93DF931F92CDB7DEB76C0181E00E
:1034A000D60158968C9358975B969C915B975C9647
:1034B0008C915C97981307C05096ED91FC915197B1
:1034C000808185FD2EC0F601038D10E00F5F1F4F38
:1034D0000F731127F02EF601848DF81211C00FB66C
:1034E00007FCF9CFD6015096ED91FC915197808160
:1034F00085FFF1CFC60169830E94011A6981EBCF74
:10350000838DE80FF11DE35AFF4F6083D6015B9670
:103510000C935B975296ED91FC915397808180625A
:103520000CC0D6015696ED91FC915797608350964A
:10353000ED91FC91519780818064808381E090E0DF
:103540000F90DF91CF911F910F91FF90DF90CF905F
:103550000895BF92CF92DF92EF92FF92CF93DF93C5
:10356000EC016A017B01B22E60E874E88EE190E024
:10357000A70196010E94A51E215031094109510958
:103580005695479537952795E889F98982E0808394
:10359000211580E1380798F0E889F989108260E404
:1035A00072E48FE090E0A70196010E94A51E2150D1
:1035B0003109410951095695479537952795EC856D
:1035C000FD853083EE85FF852083188EEC89FD898B
:1035D000B082EA89FB89808180618083EA89FB89E6
:1035E000808188608083EA89FB898081806880830C
:1035F000EA89FB8980818F7D8083DF91CF91FF9065
:10360000EF90DF90CF90BF9008951F920F920FB66A
:103610000F9211242F938F939F93EF93FF93E09139
:10362000E005F091E1058081E091E605F091E70584
:1036300082FD12C090818091E9058F5F8F73209188
:10364000EA05821751F0E091E905F0E0E053FA4F06
:10365000958F8093E90501C08081FF91EF919F9143
:103660008F912F910F900FBE0F901F9018951F9262
:103670000F920FB60F9211242F933F934F935F93A6
:103680006F937F938F939F93AF93BF93EF93FF932A
:1036900080ED95E00E94011AFF91EF91BF91AF91EB
:1036A0009F918F917F916F915F914F913F912F915A
:1036B0000F900FBE0F901F90189580ED95E00E941F
:1036C000C61921E0892B09F420E0822F0895109279
:1036D000D3051092D20588EE93E0A0E0B0E080938D
:1036E000D4059093D505A093D605B093D70583E470
:1036F00092E09093D1058093D00585EC90E0909373
:10370000DD058093DC0584EC90E09093DF058093E9
:10371000DE0580EC90E09093E1058093E00581EC7C
:1037200090E09093E3058093E20582EC90E0909323
:10373000E5058093E40586EC90E09093E70580939F
:10374000E6051092E9051092EA051092EB05109239
:10375000EC05089508950E94F3180E94AA1B0E9488
:10376000B304C3EFD9E10E9467052097E1F30E94FB
:10377000F319F9CFCF92DF92EF92FF920F931F933D
:10378000CF93DF937C016A01EB0100E010E00C15A0
:103790001D0571F06991D701ED91FC910190F081C7
:1037A000E02DC7010995892B19F00F5F1F4FEFCF4F
:1037B000C801DF91CF911F910F91FF90EF90DF90A3
:1037C000CF9008956115710581F0DB010D90002007
:1037D000E9F7AD0141505109461B570BDC01ED9152
:1037E000FC910280F381E02D099480E090E008953F
:1037F000DC01ED91FC91DB0114964D915C911597E4
:103800006D917C910280F381E02D09946FE472E068
:103810000C94E21B0F931F93CF93DF93EC010E9454
:10382000F81B8C01CE010E94061C800F911FDF91B6
:10383000CF911F910F910895FC01808191810C948B
:10384000D31FCF93DF93EC0188819981009711F00A
:103850000E94D31F198218821D821C821B821A8229
:10386000DF91CF9108950F931F93CF93DF93EC01D6
:103870008B016F5F7F4F888199810E946220009742
:1038800031F0998388831B830A8381E001C080E043
:10389000DF91CF911F910F910895CF93DF93EC01AA
:1038A00088819981892B29F08A819B8186179707C6
:1038B00060F4CE010E94331C882341F08C819D81ED
:1038C000892B19F4E881F981108281E0DF91CF9191
:1038D0000895EF92FF920F931F93CF93DF93EC0124
:1038E0007B018A01BA010E944D1C811104C0CE01E6
:1038F0000E94211C07C01D830C83B7018881998118
:103900000E944521CE01DF91CF911F910F91FF9031
:10391000EF900895FC0111821082138212821582A9
:1039200014826115710559F0FB0101900020E9F73F
:10393000AF0141505109461B570B0C94691C089567
:10394000EF92FF920F931F93CF93DF93EC017B01D4
:103950000C811D816115710511F480E016C04115BF
:10396000510591F0040F151FB8010E944D1C8823CA
:10397000A1F3288139818C819D81B701820F931F2A
:103980000E9445211D830C8381E0DF91CF911F911F
:103990000F91FF90EF900895CF93DF9300D0CDB7B4
:1039A000DEB769831A8241E050E0BE016F5F7F4F4E
:1039B0000E94A01C0F900F90DF91CF910895CF939C
:1039C000DF93DC01ED91FC91EB01A881B981309787
:1039D00011F01097C9F4109759F0EB012C813D813B
:1039E000232B31F08C9190E091958195910914C031
:1039F000309781F0DC0114968D919C911597892B5D
:103A000049F0808190E008C0BD01CF01DF91CF91E6
:103A10000C943C2180E090E0DF91CF9108950895CF
:103A2000A8D008F481E008950CD0DEC0D6D040F0D4
:103A3000CDD030F021F45F3F19F0BFC0511108C163
:103A4000C2C0E3D098F39923C9F35523B1F3951B72
:103A5000550BBB27AA2762177307840738F09F5FAF
:103A60005F4F220F331F441FAA1FA9F333D00E2E1E
:103A70003AF0E0E830D091505040E695001CCAF78B
:103A800029D0FE2F27D0660F771F881FBB1F261750
:103A900037074807AB07B0E809F0BB0B802DBF0123
:103AA000FF2793585F4F2AF09E3F510568F085C06D
:103AB000CFC05F3FECF3983EDCF386957795679532
:103AC000B795F7959F5FC9F7880F911D96958795D4
:103AD00097F90895E1E0660F771F881FBB1F6217F3
:103AE00073078407BA0720F0621B730B840BBA0BB1
:103AF000EE1F88F7E0950895E89409C097FB3EF41F
:103B000090958095709561957F4F8F4F9F4F99232A
:103B1000A9F0F92F96E9BB279395F69587957795A8
:103B20006795B795F111F8CFFAF4BB0F11F460FF68
:103B30001BC06F5F7F4F8F4F9F4F16C0882311F0C0
:103B400096E911C0772321F09EE8872F762F05C0D4
:103B5000662371F096E8862F70E060E02AF09A956F
:103B6000660F771F881FDAF7880F9695879597F964
:103B70000895990F0008550FAA0BE0E8FEEF1616FE
:103B80001706E807F907C0F012161306E407F50751
:103B900098F0621B730B840B950B39F40A2661F0C5
:103BA000232B242B252B21F408950A2609F4A14068
:103BB000A6958FEF811D811D089597F99F6780E875
:103BC00070E060E008959FEF80EC089500240A946F
:103BD0001616170618060906089500240A941216E8
:103BE0001306140605060895092E0394000C11F41B
:103BF000882352F0BB0F40F4BF2B11F460FF04C0C8
:103C00006F5F7F4F8F4F9F4F089557FD9058440F20
:103C1000551F59F05F3F71F04795880F97FB991F2B
:103C200061F09F3F79F087950895121613061406E8
:103C3000551FF2CF4695F1DF08C016161706180675
:103C4000991FF1CF86957105610508940895E89450
:103C5000BB2766277727CB0197F908958ADF08F4F9
:103C60008FEF08950BD0C0CFB1DF28F0B6DF18F08A
:103C7000952309F0A2CFA7CF1124EACFC6DFA0F386
:103C8000959FD1F3950F50E0551F629FF001729FF1
:103C9000BB27F00DB11D639FAA27F00DB11DAA1F10
:103CA000649F6627B00DA11D661F829F2227B00D5D
:103CB000A11D621F739FB00DA11D621F839FA00DE8
:103CC000611D221F749F3327A00D611D231F849F38
:103CD000600D211D822F762F6A2F11249F5750408F
:103CE0008AF0E1F088234AF0EE0FFF1FBB1F661F2A
:103CF000771F881F91505040A9F79E3F510570F0E3
:103D00005CCFA6CF5F3FECF3983EDCF386957795CA
:103D10006795B795F795E7959F5FC1F7FE2B880FDD
:103D2000911D9695879597F90895DB018F939F9341
:103D30000E94E61EBF91AF91A29F800D911DA39F8F
:103D4000900DB29F900D11240895A1E21A2EAA1B86
:103D5000BB1BFD010DC0AA1FBB1FEE1FFF1FA2173B
:103D6000B307E407F50720F0A21BB30BE40BF50B38
:103D7000661F771F881F991F1A9469F760957095C1
:103D8000809590959B01AC01BD01CF010895052E52
:103D900097FB1EF400940E94DE1E57FD07D00E9480
:103DA000A51E07FC03D04EF40C94DE1E50954095E2
:103DB000309521953F4F4F4F5F4F089590958095D7
:103DC000709561957F4F8F4F9F4F08950E940B1FF5
:103DD000A59F900DB49F900DA49F800D911D11245F
:103DE0000895B7FF0C94E61E0E94E61E821B930BFB
:103DF00008950024A7FD00942A17300540055005BA
:103E000060057005800590050895EE0FFF1F059071
:103E1000F491E02D0994A29FB001B39FC001A39F2C
:103E2000700D811D1124911DB29F700D811D1124F3
:103E3000911D0895EF920F931F93CF93DF93E801A5
:103E400047FF02C034E101C034E0E42FFF27E7FD63
:103E5000F095F7FF03C0F195E195F109E32E022FEC
:103E60002E2FAE010E944C21CE01DF91CF911F91E8
:103E70000F91EF900895CF93DF938230910510F466
:103E800082E090E0E0916F06F091700620E030E073
:103E9000A0E0B0E0309739F14081518148175907CF
:103EA000B8F04817590771F482819381109729F06F
:103EB00013969C938E9312972CC0909370068093C8
:103EC0006F0627C02115310531F04217530718F04E
:103ED000A901DB0101C0EF019A01BD01DF010280F0
:103EE000F381E02DD7CF21153105F9F0281B390BCF
:103EF0002430310580F48A819B816115710521F0A0
:103F0000FB019383828304C09093700680936F06B5
:103F1000FE01329644C0FE01E20FF31F819391939C
:103F200022503109398328833AC020916D0630919F
:103F30006E06232B41F4209102013091030130934E
:103F40006E0620936D06209100013091010121152C
:103F5000310541F42DB73EB7409104015091050160
:103F6000241B350BE0916D06F0916E06E217F30706
:103F7000A0F42E1B3F0B2817390778F0AC014E5FD9
:103F80005F4F2417350748F04E0F5F1F50936E06A2
:103F900040936D068193919302C0E0E0F0E0CF0181
:103FA000DF91CF910895CF93DF93009709F487C0F5
:103FB000FC01329713821282C0916F06D091700675
:103FC000209781F420813181280F391F80916D065F
:103FD00090916E068217930779F5F0936E06E09341
:103FE0006D066DC0DE0120E030E0AE17BF0750F473
:103FF00012964D915C9113979D014115510509F160
:10400000DA01F3CFB383A28340815181840F951FDE
:104010008A179B0771F48D919C911197840F951FBE
:1040200002969183808312968D919C91139793832E
:1040300082832115310529F4F0937006E0936F0611
:104040003EC0D9011396FC93EE9312974D915D916A
:10405000A40FB51FEA17FB0779F480819181840FC3
:10406000951F0296D90111969C938E93828193811C
:1040700013969C938E931297E0E0F0E08A819B81E7
:10408000009719F0FE01EC01F9CFCE0102962881CC
:104090003981820F931F20916D0630916E0628178B
:1040A000390769F4309729F41092700610926F0660
:1040B00002C013821282D0936E06C0936D06DF9108
:1040C000CF910895A0E0B0E0E8E6F0E20C94A623DA
:1040D000EC01CB01209719F40E943B1FB8C0FE01F0
:1040E000E60FF71F9E0122503109E217F30708F48B
:1040F000ACC0D9010D911C91119706171707B8F0A4
:104100000530110508F49FC0A80144505109461715
:10411000570708F498C002501109061B170B0193AA
:1041200011936D937C93CF010E94D31F8CC05B01D0
:10413000A01AB10A4E01800E911EA0916F06B09197
:104140007006612C712C60E070E0109709F449C092
:10415000A815B905C9F5ED90FC901197670142E0EB
:10416000C40ED11CCA14DB0478F147018A189B08DD
:10417000640142E0C40ED11C1296BC9012971396B3
:10418000AC91B5E0CB16D10440F0B282A38391820A
:104190008082D9018D939C9309C00E5F1F4F0E0D35
:1041A0001F1DF90111830083EB2DFA2F6115710595
:1041B00031F0DB011396FC93EE93129744C0F09319
:1041C0007006E0936F063FC06D917C911197661663
:1041D000770608F43B01BD0112960D90BC91A02D0D
:1041E000B4CF60916D0670916E0668157905E9F49B
:1041F00068167906D0F440910001509101014115F3
:10420000510541F44DB75EB760910401709105010D
:10421000461B570BE417F507C0F4F0936E06E093C6
:104220006D06F901918380830EC00E943B1F7C01C3
:10423000009759F0A801BE010E943321CE010E94CF
:10424000D31FC70104C0CE0102C080E090E0CDB70B
:10425000DEB7EEE00C94C223FB01DC0105900D9269
:104260000020E1F70895FB01DC0102C001900D92EE
:1042700041505040D8F70895FB01DC018D91019029
:1042800080190110D9F3990B0895FB01DC0101900D
:104290000D920020E1F708956F927F929F92AF9266
:1042A000BF92CF92DF92EF92FF920F931F93CF9323
:1042B000DF93CDB7DEB729970FB6F894DEBF0FBEF8
:1042C000CDBF6A01B22E102F0C3320F4FF24F394DB
:1042D000F00E02C04CE3F42E0F2D27E0AE014F5F2D
:1042E0005F4F0E94CA227981272F2970213031F037
:1042F000E1FC06C0E0FC06C060E005C06DE203C062
:104300006BE201C060E2AE2DA07173FF36C0662380
:1043100011F084E001C083E08B1510F4B81A01C0DD
:10432000B12CA1110BC0F6018B2D90E2882319F05E
:1043300091938150FBCFCB0CD11CB12C662331F073
:10434000F601608396012F5F3F4F6901C601039616
:10435000E2FE05C02EE4F601208331E404C02EE61F
:10436000F601208331E631832283FC012B2D30E2DC
:104370002223F1F131932150FBCF72FF40C066231D
:1043800011F084E001C083E08B1510F4B81A01C06D
:10439000B12CA1110BC0F6018B2D90E2882319F0EE
:1043A00091938150FBCFCB0CD11CB12C662331F003
:1043B000F601608396012F5F3F4F6901C6010396A6
:1043C000E2FE07C029E4F60120832EE4218326E4DF
:1043D00006C029E6F60120832EE6218326E6228305
:1043E000FC012B2D30E2222319F031932150FBCF19
:1043F000FC01EB0DF11D10828EEF9FEFB7C0B1E015
:10440000611101C0B0E04B2F50E01816190624F4DA
:104410009C012F5F3F4F02C021E030E0240F351F89
:10442000112329F0412F50E04F5F5F4F02C040E061
:1044300050E0420F531F2B2D30E04217530714F466
:10444000B41A01C0B12C2E2D287159F4F6012B2D70
:1044500030E2222319F031932150FBCFCB0CD11C39
:10446000B12CBB2331F0F601608396012F5F3F4FE3
:104470006901A1110BC0F6012B2D30E3222319F0A5
:1044800031932150FBCFCB0CD11CB12CF80E0A81FB
:10449000372F3071A32E74FF03C0013309F4FA944F
:1044A0001F142CF42F2D293018F028E001C021E032
:1044B000682F392F97FF02C060E030E0462F532F5E
:1044C000612C712C3EE2932EBC01621B71099B0191
:1044D000DC01A41BB50BE1E0F0E0EC0FFD1FAE0F1B
:1044E000BF1FE12EF12CF194E194F1084F3FFFEF53
:1044F0005F0731F4F6019082B6016F5F7F4F6B0169
:10450000841795074CF02417350734F4BD01660D68
:10451000771DFB01118101C010E341505109FFEFEC
:104520006F1A7F0AB6016F5F7F4F4E155F0524F04B
:10453000F60110836B01DACF4817590739F40633B7
:1045400020F4053319F4A11001C011E3F601108322
:10455000FB018B2D90E2882319F091938150FBCFC2
:10456000FB01EB0DF11D108280E090E029960FB663
:10457000F894DEBF0FBECDBFDF91CF911F910F9199
:10458000FF90EF90DF90CF90BF90AF909F907F9083
:104590006F900895283008F027E03327DA01990F4B
:1045A000311D87FD916000966105710539F4326017
:1045B0002E5F3D9330E32A95E1F708959F3F30F059
:1045C00080387105610509F03C5F3C5F3D93913097
:1045D00008F08068911DDF93CF931F930F93FF9294
:1045E000EF92192F987F9695E92F96959695E90F5A
:1045F000FF27EC5CFC4F99273327EE24FF24A7010B
:10460000E70105900894079428F4360FE71EF81E7A
:10461000491F511D660F771F881F991F0694A1F728
:104620000590079428F4E70EF81E491F561FC11D78
:10463000770F881F991F661F0694A1F705900794AE
:1046400028F4F80E491F561FC71FD11D880F991F48
:10465000661F771F0694A1F70590079420F4490F71
:10466000561FC71FD81F990F661F771F881F0694F4
:10467000A9F784911095177041F0D695C795579575
:104680004795F794E7941A95C1F7EAEDF2E068943C
:104690001590159135916591959105907FE27395EF
:1046A000E118F10A430B560BC90BD009C0F7E10C16
:1046B000F11E431F561FC91FD01D7EF4703311F425
:1046C0008A95E6CFE894015030F0080F0AF40027ED
:1046D000021708F4202F2395022F7A3328F079E36C
:1046E0007D932A95E9F710C07D932A9589F6069463
:1046F00097956795379517951794E118F10A430B2D
:10470000560BC90BD00998F023957E9173957A3397
:1047100008F070E37C932013B8F77E9170617D936D
:1047200030F0839571E37D9370E32A95E1F71124CE
:10473000EF90FF900F911F91CF91DF91992787FD07
:10474000909508952F923F924F925F926F927F9231
:104750008F929F92AF92BF92CF92DF92EF92FF9291
:104760000F931F93CF93DF93CDB7DEB7CA1BDB0B3D
:104770000FB6F894DEBF0FBECDBF09942A883988E2
:1047800048885F846E847D848C849B84AA84B984E9
:10479000C884DF80EE80FD800C811B81AA81B981F5
:1047A000CE0FD11D0FB6F894DEBF0FBECDBFED0109
:0647B0000895F894FFCF0C
:1047B6000000710680002A01470166018401A001FC
:1047C600BD01DB01F40103020D0206576561746544
:1047D600725F53746174696F6E002F686F6D652F19
:1047E6007765617465725F73746174696F6E2F6447
:1047F60068745F737473002F686F6D652F776561DA
:104806007465725F73746174696F6E2F7261646927
:104816006F5F626174002F686F6D652F77656174D5
:1048260065725F73746174696F6E2F7072657373EE
:10483600757265002F686F6D652F77656174657297
:104846005F73746174696F6E2F74656D705F650058
:104856002F686F6D652F7765617465725F7374611C
:1048660074696F6E2F74656D705F696E002F686F67
:104876006D652F7765617465725F73746174696FB6
:104886006E2F74656D705F6F7574002F686F6D6540
:104896002F7765617465725F73746174696F6E2FCB
:1048A60068756D003139322E3136382E3130302E62
:1048B6003131006165726F676C6173730057644CC8
:1048C600696E6B0005040102030000000000F60695
:1048D600C9069E06A606B906C80641524455494E63
:1048E6004F3A20496E76616C69642043524300005A
:1048F600000000441ABA1BC619DF19D119221A0D75
:104906000A006E616E00696E66006F7666002E00A4
:00000001FF
